{
	"chp_2/AddFiveStorage.sol": {
		"AddFiveStorage": {
			"abi": [
				{
					"inputs": [
						{
							"internalType": "string",
							"name": "_name",
							"type": "string"
						},
						{
							"internalType": "uint256",
							"name": "_number",
							"type": "uint256"
						}
					],
					"name": "addPerson",
					"outputs": [],
					"stateMutability": "nonpayable",
					"type": "function"
				},
				{
					"inputs": [],
					"name": "favoriateNumber",
					"outputs": [
						{
							"internalType": "uint256",
							"name": "",
							"type": "uint256"
						}
					],
					"stateMutability": "view",
					"type": "function"
				},
				{
					"inputs": [
						{
							"internalType": "string",
							"name": "_name",
							"type": "string"
						}
					],
					"name": "getFavoriateNumber",
					"outputs": [
						{
							"internalType": "uint256",
							"name": "",
							"type": "uint256"
						}
					],
					"stateMutability": "view",
					"type": "function"
				},
				{
					"inputs": [
						{
							"internalType": "uint256",
							"name": "",
							"type": "uint256"
						}
					],
					"name": "listOfPeoples",
					"outputs": [
						{
							"internalType": "string",
							"name": "name",
							"type": "string"
						},
						{
							"internalType": "uint256",
							"name": "number",
							"type": "uint256"
						}
					],
					"stateMutability": "view",
					"type": "function"
				},
				{
					"inputs": [],
					"name": "retrieve",
					"outputs": [
						{
							"internalType": "uint256",
							"name": "",
							"type": "uint256"
						}
					],
					"stateMutability": "view",
					"type": "function"
				},
				{
					"inputs": [
						{
							"internalType": "uint256",
							"name": "_number",
							"type": "uint256"
						}
					],
					"name": "store",
					"outputs": [],
					"stateMutability": "nonpayable",
					"type": "function"
				}
			],
			"devdoc": {
				"kind": "dev",
				"methods": {},
				"version": 1
			},
			"evm": {
				"assembly": "    /* \"chp_2/AddFiveStorage.sol\":122:270  contract AddFiveStorage is SimpleStorage{... */\n  mstore(0x40, 0x80)\n  callvalue\n  dup1\n  iszero\n  tag_1\n  jumpi\n  0x00\n  dup1\n  revert\ntag_1:\n  pop\n  dataSize(sub_0)\n  dup1\n  dataOffset(sub_0)\n  0x00\n  codecopy\n  0x00\n  return\nstop\n\nsub_0: assembly {\n        /* \"chp_2/AddFiveStorage.sol\":122:270  contract AddFiveStorage is SimpleStorage{... */\n      mstore(0x40, 0x80)\n      callvalue\n      dup1\n      iszero\n      tag_1\n      jumpi\n      0x00\n      dup1\n      revert\n    tag_1:\n      pop\n      jumpi(tag_2, lt(calldatasize, 0x04))\n      shr(0xe0, calldataload(0x00))\n      dup1\n      0x26fd5ebe\n      eq\n      tag_3\n      jumpi\n      dup1\n      0x2e64cec1\n      eq\n      tag_4\n      jumpi\n      dup1\n      0x6057361d\n      eq\n      tag_5\n      jumpi\n      dup1\n      0x69934e47\n      eq\n      tag_6\n      jumpi\n      dup1\n      0x6f760f41\n      eq\n      tag_7\n      jumpi\n      dup1\n      0xb8b1d7af\n      eq\n      tag_8\n      jumpi\n    tag_2:\n      0x00\n      dup1\n      revert\n        /* \"chp_1/SimpleStorage.sol\":422:451  Person[] public listOfPeoples */\n    tag_3:\n      tag_9\n      0x04\n      dup1\n      calldatasize\n      sub\n      dup2\n      add\n      swap1\n      tag_10\n      swap2\n      swap1\n      tag_11\n      jump\t// in\n    tag_10:\n      tag_12\n      jump\t// in\n    tag_9:\n      mload(0x40)\n      tag_13\n      swap3\n      swap2\n      swap1\n      tag_14\n      jump\t// in\n    tag_13:\n      mload(0x40)\n      dup1\n      swap2\n      sub\n      swap1\n      return\n        /* \"chp_1/SimpleStorage.sol\":248:337  function retrieve() public view returns(uint256){... */\n    tag_4:\n      tag_15\n      tag_16\n      jump\t// in\n    tag_15:\n      mload(0x40)\n      tag_17\n      swap2\n      swap1\n      tag_18\n      jump\t// in\n    tag_17:\n      mload(0x40)\n      dup1\n      swap2\n      sub\n      swap1\n      return\n        /* \"chp_2/AddFiveStorage.sol\":171:267  function store(uint256 _number) public override {... */\n    tag_5:\n      tag_19\n      0x04\n      dup1\n      calldatasize\n      sub\n      dup2\n      add\n      swap1\n      tag_20\n      swap2\n      swap1\n      tag_11\n      jump\t// in\n    tag_20:\n      tag_21\n      jump\t// in\n    tag_19:\n      stop\n        /* \"chp_1/SimpleStorage.sol\":685:809  function getFavoriateNumber(string memory _name) public view returns(uint256){... */\n    tag_6:\n      tag_22\n      0x04\n      dup1\n      calldatasize\n      sub\n      dup2\n      add\n      swap1\n      tag_23\n      swap2\n      swap1\n      tag_24\n      jump\t// in\n    tag_23:\n      tag_25\n      jump\t// in\n    tag_22:\n      mload(0x40)\n      tag_26\n      swap2\n      swap1\n      tag_18\n      jump\t// in\n    tag_26:\n      mload(0x40)\n      dup1\n      swap2\n      sub\n      swap1\n      return\n        /* \"chp_1/SimpleStorage.sol\":510:677  function addPerson(string memory _name, uint256 _number) public {... */\n    tag_7:\n      tag_27\n      0x04\n      dup1\n      calldatasize\n      sub\n      dup2\n      add\n      swap1\n      tag_28\n      swap2\n      swap1\n      tag_29\n      jump\t// in\n    tag_28:\n      tag_30\n      jump\t// in\n    tag_27:\n      stop\n        /* \"chp_1/SimpleStorage.sol\":92:122  uint256 public favoriateNumber */\n    tag_8:\n      tag_31\n      tag_32\n      jump\t// in\n    tag_31:\n      mload(0x40)\n      tag_33\n      swap2\n      swap1\n      tag_18\n      jump\t// in\n    tag_33:\n      mload(0x40)\n      dup1\n      swap2\n      sub\n      swap1\n      return\n        /* \"chp_1/SimpleStorage.sol\":422:451  Person[] public listOfPeoples */\n    tag_12:\n      0x01\n      dup2\n      dup2\n      sload\n      dup2\n      lt\n      tag_34\n      jumpi\n      0x00\n      dup1\n      revert\n    tag_34:\n      swap1\n      0x00\n      mstore\n      keccak256(0x00, 0x20)\n      swap1\n      0x02\n      mul\n      add\n      0x00\n      swap2\n      pop\n      swap1\n      pop\n      dup1\n      0x00\n      add\n      dup1\n      sload\n      tag_36\n      swap1\n      tag_37\n      jump\t// in\n    tag_36:\n      dup1\n      0x1f\n      add\n      0x20\n      dup1\n      swap2\n      div\n      mul\n      0x20\n      add\n      mload(0x40)\n      swap1\n      dup2\n      add\n      0x40\n      mstore\n      dup1\n      swap3\n      swap2\n      swap1\n      dup2\n      dup2\n      mstore\n      0x20\n      add\n      dup3\n      dup1\n      sload\n      tag_38\n      swap1\n      tag_37\n      jump\t// in\n    tag_38:\n      dup1\n      iszero\n      tag_39\n      jumpi\n      dup1\n      0x1f\n      lt\n      tag_40\n      jumpi\n      0x0100\n      dup1\n      dup4\n      sload\n      div\n      mul\n      dup4\n      mstore\n      swap2\n      0x20\n      add\n      swap2\n      jump(tag_39)\n    tag_40:\n      dup3\n      add\n      swap2\n      swap1\n      0x00\n      mstore\n      keccak256(0x00, 0x20)\n      swap1\n    tag_41:\n      dup2\n      sload\n      dup2\n      mstore\n      swap1\n      0x01\n      add\n      swap1\n      0x20\n      add\n      dup1\n      dup4\n      gt\n      tag_41\n      jumpi\n      dup3\n      swap1\n      sub\n      0x1f\n      and\n      dup3\n      add\n      swap2\n    tag_39:\n      pop\n      pop\n      pop\n      pop\n      pop\n      swap1\n      dup1\n      0x01\n      add\n      sload\n      swap1\n      pop\n      dup3\n      jump\t// out\n        /* \"chp_1/SimpleStorage.sol\":248:337  function retrieve() public view returns(uint256){... */\n    tag_16:\n        /* \"chp_1/SimpleStorage.sol\":288:295  uint256 */\n      0x00\n        /* \"chp_1/SimpleStorage.sol\":314:329  favoriateNumber */\n      dup1\n      sload\n        /* \"chp_1/SimpleStorage.sol\":307:329  return favoriateNumber */\n      swap1\n      pop\n        /* \"chp_1/SimpleStorage.sol\":248:337  function retrieve() public view returns(uint256){... */\n      swap1\n      jump\t// out\n        /* \"chp_2/AddFiveStorage.sol\":171:267  function store(uint256 _number) public override {... */\n    tag_21:\n        /* \"chp_2/AddFiveStorage.sol\":258:259  5 */\n      0x05\n        /* \"chp_2/AddFiveStorage.sol\":248:255  _number */\n      dup2\n        /* \"chp_2/AddFiveStorage.sol\":248:259  _number + 5 */\n      tag_44\n      swap2\n      swap1\n      tag_45\n      jump\t// in\n    tag_44:\n        /* \"chp_2/AddFiveStorage.sol\":230:245  favoriateNumber */\n      0x00\n        /* \"chp_2/AddFiveStorage.sol\":230:259  favoriateNumber = _number + 5 */\n      dup2\n      swap1\n      sstore\n      pop\n        /* \"chp_2/AddFiveStorage.sol\":171:267  function store(uint256 _number) public override {... */\n      pop\n      jump\t// out\n        /* \"chp_1/SimpleStorage.sol\":685:809  function getFavoriateNumber(string memory _name) public view returns(uint256){... */\n    tag_25:\n        /* \"chp_1/SimpleStorage.sol\":754:761  uint256 */\n      0x00\n        /* \"chp_1/SimpleStorage.sol\":780:794  personToNumber */\n      0x02\n        /* \"chp_1/SimpleStorage.sol\":795:800  _name */\n      dup3\n        /* \"chp_1/SimpleStorage.sol\":780:801  personToNumber[_name] */\n      mload(0x40)\n      tag_47\n      swap2\n      swap1\n      tag_48\n      jump\t// in\n    tag_47:\n      swap1\n      dup2\n      mstore\n      0x20\n      add\n      mload(0x40)\n      dup1\n      swap2\n      sub\n      swap1\n      keccak256\n      sload\n        /* \"chp_1/SimpleStorage.sol\":773:801  return personToNumber[_name] */\n      swap1\n      pop\n        /* \"chp_1/SimpleStorage.sol\":685:809  function getFavoriateNumber(string memory _name) public view returns(uint256){... */\n      swap2\n      swap1\n      pop\n      jump\t// out\n        /* \"chp_1/SimpleStorage.sol\":510:677  function addPerson(string memory _name, uint256 _number) public {... */\n    tag_30:\n        /* \"chp_1/SimpleStorage.sol\":585:598  listOfPeoples */\n      0x01\n        /* \"chp_1/SimpleStorage.sol\":604:626  Person(_name, _number) */\n      mload(0x40)\n      dup1\n      0x40\n      add\n      0x40\n      mstore\n      dup1\n        /* \"chp_1/SimpleStorage.sol\":611:616  _name */\n      dup5\n        /* \"chp_1/SimpleStorage.sol\":604:626  Person(_name, _number) */\n      dup2\n      mstore\n      0x20\n      add\n        /* \"chp_1/SimpleStorage.sol\":618:625  _number */\n      dup4\n        /* \"chp_1/SimpleStorage.sol\":604:626  Person(_name, _number) */\n      dup2\n      mstore\n      pop\n        /* \"chp_1/SimpleStorage.sol\":585:627  listOfPeoples.push(Person(_name, _number)) */\n      swap1\n      dup1\n      0x01\n      dup2\n      sload\n      add\n      dup1\n      dup3\n      sstore\n      dup1\n      swap2\n      pop\n      pop\n      0x01\n      swap1\n      sub\n      swap1\n      0x00\n      mstore\n      keccak256(0x00, 0x20)\n      swap1\n      0x02\n      mul\n      add\n      0x00\n      swap1\n      swap2\n      swap1\n      swap2\n      swap1\n      swap2\n      pop\n      0x00\n      dup3\n      add\n      mload\n      dup2\n      0x00\n      add\n      swap1\n      dup2\n      tag_51\n      swap2\n      swap1\n      tag_52\n      jump\t// in\n    tag_51:\n      pop\n      0x20\n      dup3\n      add\n      mload\n      dup2\n      0x01\n      add\n      sstore\n      pop\n      pop\n        /* \"chp_1/SimpleStorage.sol\":662:669  _number */\n      dup1\n        /* \"chp_1/SimpleStorage.sol\":638:652  personToNumber */\n      0x02\n        /* \"chp_1/SimpleStorage.sol\":653:658  _name */\n      dup4\n        /* \"chp_1/SimpleStorage.sol\":638:659  personToNumber[_name] */\n      mload(0x40)\n      tag_53\n      swap2\n      swap1\n      tag_48\n      jump\t// in\n    tag_53:\n      swap1\n      dup2\n      mstore\n      0x20\n      add\n      mload(0x40)\n      dup1\n      swap2\n      sub\n      swap1\n      keccak256\n        /* \"chp_1/SimpleStorage.sol\":638:669  personToNumber[_name] = _number */\n      dup2\n      swap1\n      sstore\n      pop\n        /* \"chp_1/SimpleStorage.sol\":510:677  function addPerson(string memory _name, uint256 _number) public {... */\n      pop\n      pop\n      jump\t// out\n        /* \"chp_1/SimpleStorage.sol\":92:122  uint256 public favoriateNumber */\n    tag_32:\n      sload(0x00)\n      dup2\n      jump\t// out\n        /* \"#utility.yul\":7:82   */\n    tag_54:\n        /* \"#utility.yul\":40:46   */\n      0x00\n        /* \"#utility.yul\":73:75   */\n      0x40\n        /* \"#utility.yul\":67:76   */\n      mload\n        /* \"#utility.yul\":57:76   */\n      swap1\n      pop\n        /* \"#utility.yul\":7:82   */\n      swap1\n      jump\t// out\n        /* \"#utility.yul\":88:205   */\n    tag_55:\n        /* \"#utility.yul\":197:198   */\n      0x00\n        /* \"#utility.yul\":194:195   */\n      dup1\n        /* \"#utility.yul\":187:199   */\n      revert\n        /* \"#utility.yul\":211:328   */\n    tag_56:\n        /* \"#utility.yul\":320:321   */\n      0x00\n        /* \"#utility.yul\":317:318   */\n      dup1\n        /* \"#utility.yul\":310:322   */\n      revert\n        /* \"#utility.yul\":334:411   */\n    tag_57:\n        /* \"#utility.yul\":371:378   */\n      0x00\n        /* \"#utility.yul\":400:405   */\n      dup2\n        /* \"#utility.yul\":389:405   */\n      swap1\n      pop\n        /* \"#utility.yul\":334:411   */\n      swap2\n      swap1\n      pop\n      jump\t// out\n        /* \"#utility.yul\":417:539   */\n    tag_58:\n        /* \"#utility.yul\":490:514   */\n      tag_100\n        /* \"#utility.yul\":508:513   */\n      dup2\n        /* \"#utility.yul\":490:514   */\n      tag_57\n      jump\t// in\n    tag_100:\n        /* \"#utility.yul\":483:488   */\n      dup2\n        /* \"#utility.yul\":480:515   */\n      eq\n        /* \"#utility.yul\":470:533   */\n      tag_101\n      jumpi\n        /* \"#utility.yul\":529:530   */\n      0x00\n        /* \"#utility.yul\":526:527   */\n      dup1\n        /* \"#utility.yul\":519:531   */\n      revert\n        /* \"#utility.yul\":470:533   */\n    tag_101:\n        /* \"#utility.yul\":417:539   */\n      pop\n      jump\t// out\n        /* \"#utility.yul\":545:684   */\n    tag_59:\n        /* \"#utility.yul\":591:596   */\n      0x00\n        /* \"#utility.yul\":629:635   */\n      dup2\n        /* \"#utility.yul\":616:636   */\n      calldataload\n        /* \"#utility.yul\":607:636   */\n      swap1\n      pop\n        /* \"#utility.yul\":645:678   */\n      tag_103\n        /* \"#utility.yul\":672:677   */\n      dup2\n        /* \"#utility.yul\":645:678   */\n      tag_58\n      jump\t// in\n    tag_103:\n        /* \"#utility.yul\":545:684   */\n      swap3\n      swap2\n      pop\n      pop\n      jump\t// out\n        /* \"#utility.yul\":690:1019   */\n    tag_11:\n        /* \"#utility.yul\":749:755   */\n      0x00\n        /* \"#utility.yul\":798:800   */\n      0x20\n        /* \"#utility.yul\":786:795   */\n      dup3\n        /* \"#utility.yul\":777:784   */\n      dup5\n        /* \"#utility.yul\":773:796   */\n      sub\n        /* \"#utility.yul\":769:801   */\n      slt\n        /* \"#utility.yul\":766:885   */\n      iszero\n      tag_105\n      jumpi\n        /* \"#utility.yul\":804:883   */\n      tag_106\n      tag_55\n      jump\t// in\n    tag_106:\n        /* \"#utility.yul\":766:885   */\n    tag_105:\n        /* \"#utility.yul\":924:925   */\n      0x00\n        /* \"#utility.yul\":949:1002   */\n      tag_107\n        /* \"#utility.yul\":994:1001   */\n      dup5\n        /* \"#utility.yul\":985:991   */\n      dup3\n        /* \"#utility.yul\":974:983   */\n      dup6\n        /* \"#utility.yul\":970:992   */\n      add\n        /* \"#utility.yul\":949:1002   */\n      tag_59\n      jump\t// in\n    tag_107:\n        /* \"#utility.yul\":939:1002   */\n      swap2\n      pop\n        /* \"#utility.yul\":895:1012   */\n      pop\n        /* \"#utility.yul\":690:1019   */\n      swap3\n      swap2\n      pop\n      pop\n      jump\t// out\n        /* \"#utility.yul\":1025:1124   */\n    tag_60:\n        /* \"#utility.yul\":1077:1083   */\n      0x00\n        /* \"#utility.yul\":1111:1116   */\n      dup2\n        /* \"#utility.yul\":1105:1117   */\n      mload\n        /* \"#utility.yul\":1095:1117   */\n      swap1\n      pop\n        /* \"#utility.yul\":1025:1124   */\n      swap2\n      swap1\n      pop\n      jump\t// out\n        /* \"#utility.yul\":1130:1299   */\n    tag_61:\n        /* \"#utility.yul\":1214:1225   */\n      0x00\n        /* \"#utility.yul\":1248:1254   */\n      dup3\n        /* \"#utility.yul\":1243:1246   */\n      dup3\n        /* \"#utility.yul\":1236:1255   */\n      mstore\n        /* \"#utility.yul\":1288:1292   */\n      0x20\n        /* \"#utility.yul\":1283:1286   */\n      dup3\n        /* \"#utility.yul\":1279:1293   */\n      add\n        /* \"#utility.yul\":1264:1293   */\n      swap1\n      pop\n        /* \"#utility.yul\":1130:1299   */\n      swap3\n      swap2\n      pop\n      pop\n      jump\t// out\n        /* \"#utility.yul\":1305:1444   */\n    tag_62:\n        /* \"#utility.yul\":1394:1400   */\n      dup3\n        /* \"#utility.yul\":1389:1392   */\n      dup2\n        /* \"#utility.yul\":1384:1387   */\n      dup4\n        /* \"#utility.yul\":1378:1401   */\n      mcopy\n        /* \"#utility.yul\":1435:1436   */\n      0x00\n        /* \"#utility.yul\":1426:1432   */\n      dup4\n        /* \"#utility.yul\":1421:1424   */\n      dup4\n        /* \"#utility.yul\":1417:1433   */\n      add\n        /* \"#utility.yul\":1410:1437   */\n      mstore\n        /* \"#utility.yul\":1305:1444   */\n      pop\n      pop\n      pop\n      jump\t// out\n        /* \"#utility.yul\":1450:1552   */\n    tag_63:\n        /* \"#utility.yul\":1491:1497   */\n      0x00\n        /* \"#utility.yul\":1542:1544   */\n      0x1f\n        /* \"#utility.yul\":1538:1545   */\n      not\n        /* \"#utility.yul\":1533:1535   */\n      0x1f\n        /* \"#utility.yul\":1526:1531   */\n      dup4\n        /* \"#utility.yul\":1522:1536   */\n      add\n        /* \"#utility.yul\":1518:1546   */\n      and\n        /* \"#utility.yul\":1508:1546   */\n      swap1\n      pop\n        /* \"#utility.yul\":1450:1552   */\n      swap2\n      swap1\n      pop\n      jump\t// out\n        /* \"#utility.yul\":1558:1935   */\n    tag_64:\n        /* \"#utility.yul\":1646:1649   */\n      0x00\n        /* \"#utility.yul\":1674:1713   */\n      tag_113\n        /* \"#utility.yul\":1707:1712   */\n      dup3\n        /* \"#utility.yul\":1674:1713   */\n      tag_60\n      jump\t// in\n    tag_113:\n        /* \"#utility.yul\":1729:1800   */\n      tag_114\n        /* \"#utility.yul\":1793:1799   */\n      dup2\n        /* \"#utility.yul\":1788:1791   */\n      dup6\n        /* \"#utility.yul\":1729:1800   */\n      tag_61\n      jump\t// in\n    tag_114:\n        /* \"#utility.yul\":1722:1800   */\n      swap4\n      pop\n        /* \"#utility.yul\":1809:1874   */\n      tag_115\n        /* \"#utility.yul\":1867:1873   */\n      dup2\n        /* \"#utility.yul\":1862:1865   */\n      dup6\n        /* \"#utility.yul\":1855:1859   */\n      0x20\n        /* \"#utility.yul\":1848:1853   */\n      dup7\n        /* \"#utility.yul\":1844:1860   */\n      add\n        /* \"#utility.yul\":1809:1874   */\n      tag_62\n      jump\t// in\n    tag_115:\n        /* \"#utility.yul\":1899:1928   */\n      tag_116\n        /* \"#utility.yul\":1921:1927   */\n      dup2\n        /* \"#utility.yul\":1899:1928   */\n      tag_63\n      jump\t// in\n    tag_116:\n        /* \"#utility.yul\":1894:1897   */\n      dup5\n        /* \"#utility.yul\":1890:1929   */\n      add\n        /* \"#utility.yul\":1883:1929   */\n      swap2\n      pop\n        /* \"#utility.yul\":1650:1935   */\n      pop\n        /* \"#utility.yul\":1558:1935   */\n      swap3\n      swap2\n      pop\n      pop\n      jump\t// out\n        /* \"#utility.yul\":1941:2059   */\n    tag_65:\n        /* \"#utility.yul\":2028:2052   */\n      tag_118\n        /* \"#utility.yul\":2046:2051   */\n      dup2\n        /* \"#utility.yul\":2028:2052   */\n      tag_57\n      jump\t// in\n    tag_118:\n        /* \"#utility.yul\":2023:2026   */\n      dup3\n        /* \"#utility.yul\":2016:2053   */\n      mstore\n        /* \"#utility.yul\":1941:2059   */\n      pop\n      pop\n      jump\t// out\n        /* \"#utility.yul\":2065:2488   */\n    tag_14:\n        /* \"#utility.yul\":2206:2210   */\n      0x00\n        /* \"#utility.yul\":2244:2246   */\n      0x40\n        /* \"#utility.yul\":2233:2242   */\n      dup3\n        /* \"#utility.yul\":2229:2247   */\n      add\n        /* \"#utility.yul\":2221:2247   */\n      swap1\n      pop\n        /* \"#utility.yul\":2293:2302   */\n      dup2\n        /* \"#utility.yul\":2287:2291   */\n      dup2\n        /* \"#utility.yul\":2283:2303   */\n      sub\n        /* \"#utility.yul\":2279:2280   */\n      0x00\n        /* \"#utility.yul\":2268:2277   */\n      dup4\n        /* \"#utility.yul\":2264:2281   */\n      add\n        /* \"#utility.yul\":2257:2304   */\n      mstore\n        /* \"#utility.yul\":2321:2399   */\n      tag_120\n        /* \"#utility.yul\":2394:2398   */\n      dup2\n        /* \"#utility.yul\":2385:2391   */\n      dup6\n        /* \"#utility.yul\":2321:2399   */\n      tag_64\n      jump\t// in\n    tag_120:\n        /* \"#utility.yul\":2313:2399   */\n      swap1\n      pop\n        /* \"#utility.yul\":2409:2481   */\n      tag_121\n        /* \"#utility.yul\":2477:2479   */\n      0x20\n        /* \"#utility.yul\":2466:2475   */\n      dup4\n        /* \"#utility.yul\":2462:2480   */\n      add\n        /* \"#utility.yul\":2453:2459   */\n      dup5\n        /* \"#utility.yul\":2409:2481   */\n      tag_65\n      jump\t// in\n    tag_121:\n        /* \"#utility.yul\":2065:2488   */\n      swap4\n      swap3\n      pop\n      pop\n      pop\n      jump\t// out\n        /* \"#utility.yul\":2494:2716   */\n    tag_18:\n        /* \"#utility.yul\":2587:2591   */\n      0x00\n        /* \"#utility.yul\":2625:2627   */\n      0x20\n        /* \"#utility.yul\":2614:2623   */\n      dup3\n        /* \"#utility.yul\":2610:2628   */\n      add\n        /* \"#utility.yul\":2602:2628   */\n      swap1\n      pop\n        /* \"#utility.yul\":2638:2709   */\n      tag_123\n        /* \"#utility.yul\":2706:2707   */\n      0x00\n        /* \"#utility.yul\":2695:2704   */\n      dup4\n        /* \"#utility.yul\":2691:2708   */\n      add\n        /* \"#utility.yul\":2682:2688   */\n      dup5\n        /* \"#utility.yul\":2638:2709   */\n      tag_65\n      jump\t// in\n    tag_123:\n        /* \"#utility.yul\":2494:2716   */\n      swap3\n      swap2\n      pop\n      pop\n      jump\t// out\n        /* \"#utility.yul\":2722:2839   */\n    tag_66:\n        /* \"#utility.yul\":2831:2832   */\n      0x00\n        /* \"#utility.yul\":2828:2829   */\n      dup1\n        /* \"#utility.yul\":2821:2833   */\n      revert\n        /* \"#utility.yul\":2845:2962   */\n    tag_67:\n        /* \"#utility.yul\":2954:2955   */\n      0x00\n        /* \"#utility.yul\":2951:2952   */\n      dup1\n        /* \"#utility.yul\":2944:2956   */\n      revert\n        /* \"#utility.yul\":2968:3148   */\n    tag_68:\n        /* \"#utility.yul\":3016:3093   */\n      0x4e487b7100000000000000000000000000000000000000000000000000000000\n        /* \"#utility.yul\":3013:3014   */\n      0x00\n        /* \"#utility.yul\":3006:3094   */\n      mstore\n        /* \"#utility.yul\":3113:3117   */\n      0x41\n        /* \"#utility.yul\":3110:3111   */\n      0x04\n        /* \"#utility.yul\":3103:3118   */\n      mstore\n        /* \"#utility.yul\":3137:3141   */\n      0x24\n        /* \"#utility.yul\":3134:3135   */\n      0x00\n        /* \"#utility.yul\":3127:3142   */\n      revert\n        /* \"#utility.yul\":3154:3435   */\n    tag_69:\n        /* \"#utility.yul\":3237:3264   */\n      tag_128\n        /* \"#utility.yul\":3259:3263   */\n      dup3\n        /* \"#utility.yul\":3237:3264   */\n      tag_63\n      jump\t// in\n    tag_128:\n        /* \"#utility.yul\":3229:3235   */\n      dup2\n        /* \"#utility.yul\":3225:3265   */\n      add\n        /* \"#utility.yul\":3367:3373   */\n      dup2\n        /* \"#utility.yul\":3355:3365   */\n      dup2\n        /* \"#utility.yul\":3352:3374   */\n      lt\n        /* \"#utility.yul\":3331:3349   */\n      0xffffffffffffffff\n        /* \"#utility.yul\":3319:3329   */\n      dup3\n        /* \"#utility.yul\":3316:3350   */\n      gt\n        /* \"#utility.yul\":3313:3375   */\n      or\n        /* \"#utility.yul\":3310:3398   */\n      iszero\n      tag_129\n      jumpi\n        /* \"#utility.yul\":3378:3396   */\n      tag_130\n      tag_68\n      jump\t// in\n    tag_130:\n        /* \"#utility.yul\":3310:3398   */\n    tag_129:\n        /* \"#utility.yul\":3418:3428   */\n      dup1\n        /* \"#utility.yul\":3414:3416   */\n      0x40\n        /* \"#utility.yul\":3407:3429   */\n      mstore\n        /* \"#utility.yul\":3197:3435   */\n      pop\n        /* \"#utility.yul\":3154:3435   */\n      pop\n      pop\n      jump\t// out\n        /* \"#utility.yul\":3441:3570   */\n    tag_70:\n        /* \"#utility.yul\":3475:3481   */\n      0x00\n        /* \"#utility.yul\":3502:3522   */\n      tag_132\n      tag_54\n      jump\t// in\n    tag_132:\n        /* \"#utility.yul\":3492:3522   */\n      swap1\n      pop\n        /* \"#utility.yul\":3531:3564   */\n      tag_133\n        /* \"#utility.yul\":3559:3563   */\n      dup3\n        /* \"#utility.yul\":3551:3557   */\n      dup3\n        /* \"#utility.yul\":3531:3564   */\n      tag_69\n      jump\t// in\n    tag_133:\n        /* \"#utility.yul\":3441:3570   */\n      swap2\n      swap1\n      pop\n      jump\t// out\n        /* \"#utility.yul\":3576:3884   */\n    tag_71:\n        /* \"#utility.yul\":3638:3642   */\n      0x00\n        /* \"#utility.yul\":3728:3746   */\n      0xffffffffffffffff\n        /* \"#utility.yul\":3720:3726   */\n      dup3\n        /* \"#utility.yul\":3717:3747   */\n      gt\n        /* \"#utility.yul\":3714:3770   */\n      iszero\n      tag_135\n      jumpi\n        /* \"#utility.yul\":3750:3768   */\n      tag_136\n      tag_68\n      jump\t// in\n    tag_136:\n        /* \"#utility.yul\":3714:3770   */\n    tag_135:\n        /* \"#utility.yul\":3788:3817   */\n      tag_137\n        /* \"#utility.yul\":3810:3816   */\n      dup3\n        /* \"#utility.yul\":3788:3817   */\n      tag_63\n      jump\t// in\n    tag_137:\n        /* \"#utility.yul\":3780:3817   */\n      swap1\n      pop\n        /* \"#utility.yul\":3872:3876   */\n      0x20\n        /* \"#utility.yul\":3866:3870   */\n      dup2\n        /* \"#utility.yul\":3862:3877   */\n      add\n        /* \"#utility.yul\":3854:3877   */\n      swap1\n      pop\n        /* \"#utility.yul\":3576:3884   */\n      swap2\n      swap1\n      pop\n      jump\t// out\n        /* \"#utility.yul\":3890:4038   */\n    tag_72:\n        /* \"#utility.yul\":3988:3994   */\n      dup3\n        /* \"#utility.yul\":3983:3986   */\n      dup2\n        /* \"#utility.yul\":3978:3981   */\n      dup4\n        /* \"#utility.yul\":3965:3995   */\n      calldatacopy\n        /* \"#utility.yul\":4029:4030   */\n      0x00\n        /* \"#utility.yul\":4020:4026   */\n      dup4\n        /* \"#utility.yul\":4015:4018   */\n      dup4\n        /* \"#utility.yul\":4011:4027   */\n      add\n        /* \"#utility.yul\":4004:4031   */\n      mstore\n        /* \"#utility.yul\":3890:4038   */\n      pop\n      pop\n      pop\n      jump\t// out\n        /* \"#utility.yul\":4044:4469   */\n    tag_73:\n        /* \"#utility.yul\":4122:4127   */\n      0x00\n        /* \"#utility.yul\":4147:4213   */\n      tag_140\n        /* \"#utility.yul\":4163:4212   */\n      tag_141\n        /* \"#utility.yul\":4205:4211   */\n      dup5\n        /* \"#utility.yul\":4163:4212   */\n      tag_71\n      jump\t// in\n    tag_141:\n        /* \"#utility.yul\":4147:4213   */\n      tag_70\n      jump\t// in\n    tag_140:\n        /* \"#utility.yul\":4138:4213   */\n      swap1\n      pop\n        /* \"#utility.yul\":4236:4242   */\n      dup3\n        /* \"#utility.yul\":4229:4234   */\n      dup2\n        /* \"#utility.yul\":4222:4243   */\n      mstore\n        /* \"#utility.yul\":4274:4278   */\n      0x20\n        /* \"#utility.yul\":4267:4272   */\n      dup2\n        /* \"#utility.yul\":4263:4279   */\n      add\n        /* \"#utility.yul\":4312:4315   */\n      dup5\n        /* \"#utility.yul\":4303:4309   */\n      dup5\n        /* \"#utility.yul\":4298:4301   */\n      dup5\n        /* \"#utility.yul\":4294:4310   */\n      add\n        /* \"#utility.yul\":4291:4316   */\n      gt\n        /* \"#utility.yul\":4288:4400   */\n      iszero\n      tag_142\n      jumpi\n        /* \"#utility.yul\":4319:4398   */\n      tag_143\n      tag_67\n      jump\t// in\n    tag_143:\n        /* \"#utility.yul\":4288:4400   */\n    tag_142:\n        /* \"#utility.yul\":4409:4463   */\n      tag_144\n        /* \"#utility.yul\":4456:4462   */\n      dup5\n        /* \"#utility.yul\":4451:4454   */\n      dup3\n        /* \"#utility.yul\":4446:4449   */\n      dup6\n        /* \"#utility.yul\":4409:4463   */\n      tag_72\n      jump\t// in\n    tag_144:\n        /* \"#utility.yul\":4128:4469   */\n      pop\n        /* \"#utility.yul\":4044:4469   */\n      swap4\n      swap3\n      pop\n      pop\n      pop\n      jump\t// out\n        /* \"#utility.yul\":4489:4829   */\n    tag_74:\n        /* \"#utility.yul\":4545:4550   */\n      0x00\n        /* \"#utility.yul\":4594:4597   */\n      dup3\n        /* \"#utility.yul\":4587:4591   */\n      0x1f\n        /* \"#utility.yul\":4579:4585   */\n      dup4\n        /* \"#utility.yul\":4575:4592   */\n      add\n        /* \"#utility.yul\":4571:4598   */\n      slt\n        /* \"#utility.yul\":4561:4683   */\n      tag_146\n      jumpi\n        /* \"#utility.yul\":4602:4681   */\n      tag_147\n      tag_66\n      jump\t// in\n    tag_147:\n        /* \"#utility.yul\":4561:4683   */\n    tag_146:\n        /* \"#utility.yul\":4719:4725   */\n      dup2\n        /* \"#utility.yul\":4706:4726   */\n      calldataload\n        /* \"#utility.yul\":4744:4823   */\n      tag_148\n        /* \"#utility.yul\":4819:4822   */\n      dup5\n        /* \"#utility.yul\":4811:4817   */\n      dup3\n        /* \"#utility.yul\":4804:4808   */\n      0x20\n        /* \"#utility.yul\":4796:4802   */\n      dup7\n        /* \"#utility.yul\":4792:4809   */\n      add\n        /* \"#utility.yul\":4744:4823   */\n      tag_73\n      jump\t// in\n    tag_148:\n        /* \"#utility.yul\":4735:4823   */\n      swap2\n      pop\n        /* \"#utility.yul\":4551:4829   */\n      pop\n        /* \"#utility.yul\":4489:4829   */\n      swap3\n      swap2\n      pop\n      pop\n      jump\t// out\n        /* \"#utility.yul\":4835:5344   */\n    tag_24:\n        /* \"#utility.yul\":4904:4910   */\n      0x00\n        /* \"#utility.yul\":4953:4955   */\n      0x20\n        /* \"#utility.yul\":4941:4950   */\n      dup3\n        /* \"#utility.yul\":4932:4939   */\n      dup5\n        /* \"#utility.yul\":4928:4951   */\n      sub\n        /* \"#utility.yul\":4924:4956   */\n      slt\n        /* \"#utility.yul\":4921:5040   */\n      iszero\n      tag_150\n      jumpi\n        /* \"#utility.yul\":4959:5038   */\n      tag_151\n      tag_55\n      jump\t// in\n    tag_151:\n        /* \"#utility.yul\":4921:5040   */\n    tag_150:\n        /* \"#utility.yul\":5107:5108   */\n      0x00\n        /* \"#utility.yul\":5096:5105   */\n      dup3\n        /* \"#utility.yul\":5092:5109   */\n      add\n        /* \"#utility.yul\":5079:5110   */\n      calldataload\n        /* \"#utility.yul\":5137:5155   */\n      0xffffffffffffffff\n        /* \"#utility.yul\":5129:5135   */\n      dup2\n        /* \"#utility.yul\":5126:5156   */\n      gt\n        /* \"#utility.yul\":5123:5240   */\n      iszero\n      tag_152\n      jumpi\n        /* \"#utility.yul\":5159:5238   */\n      tag_153\n      tag_56\n      jump\t// in\n    tag_153:\n        /* \"#utility.yul\":5123:5240   */\n    tag_152:\n        /* \"#utility.yul\":5264:5327   */\n      tag_154\n        /* \"#utility.yul\":5319:5326   */\n      dup5\n        /* \"#utility.yul\":5310:5316   */\n      dup3\n        /* \"#utility.yul\":5299:5308   */\n      dup6\n        /* \"#utility.yul\":5295:5317   */\n      add\n        /* \"#utility.yul\":5264:5327   */\n      tag_74\n      jump\t// in\n    tag_154:\n        /* \"#utility.yul\":5254:5327   */\n      swap2\n      pop\n        /* \"#utility.yul\":5050:5337   */\n      pop\n        /* \"#utility.yul\":4835:5344   */\n      swap3\n      swap2\n      pop\n      pop\n      jump\t// out\n        /* \"#utility.yul\":5350:6004   */\n    tag_29:\n        /* \"#utility.yul\":5428:5434   */\n      0x00\n        /* \"#utility.yul\":5436:5442   */\n      dup1\n        /* \"#utility.yul\":5485:5487   */\n      0x40\n        /* \"#utility.yul\":5473:5482   */\n      dup4\n        /* \"#utility.yul\":5464:5471   */\n      dup6\n        /* \"#utility.yul\":5460:5483   */\n      sub\n        /* \"#utility.yul\":5456:5488   */\n      slt\n        /* \"#utility.yul\":5453:5572   */\n      iszero\n      tag_156\n      jumpi\n        /* \"#utility.yul\":5491:5570   */\n      tag_157\n      tag_55\n      jump\t// in\n    tag_157:\n        /* \"#utility.yul\":5453:5572   */\n    tag_156:\n        /* \"#utility.yul\":5639:5640   */\n      0x00\n        /* \"#utility.yul\":5628:5637   */\n      dup4\n        /* \"#utility.yul\":5624:5641   */\n      add\n        /* \"#utility.yul\":5611:5642   */\n      calldataload\n        /* \"#utility.yul\":5669:5687   */\n      0xffffffffffffffff\n        /* \"#utility.yul\":5661:5667   */\n      dup2\n        /* \"#utility.yul\":5658:5688   */\n      gt\n        /* \"#utility.yul\":5655:5772   */\n      iszero\n      tag_158\n      jumpi\n        /* \"#utility.yul\":5691:5770   */\n      tag_159\n      tag_56\n      jump\t// in\n    tag_159:\n        /* \"#utility.yul\":5655:5772   */\n    tag_158:\n        /* \"#utility.yul\":5796:5859   */\n      tag_160\n        /* \"#utility.yul\":5851:5858   */\n      dup6\n        /* \"#utility.yul\":5842:5848   */\n      dup3\n        /* \"#utility.yul\":5831:5840   */\n      dup7\n        /* \"#utility.yul\":5827:5849   */\n      add\n        /* \"#utility.yul\":5796:5859   */\n      tag_74\n      jump\t// in\n    tag_160:\n        /* \"#utility.yul\":5786:5859   */\n      swap3\n      pop\n        /* \"#utility.yul\":5582:5869   */\n      pop\n        /* \"#utility.yul\":5908:5910   */\n      0x20\n        /* \"#utility.yul\":5934:5987   */\n      tag_161\n        /* \"#utility.yul\":5979:5986   */\n      dup6\n        /* \"#utility.yul\":5970:5976   */\n      dup3\n        /* \"#utility.yul\":5959:5968   */\n      dup7\n        /* \"#utility.yul\":5955:5977   */\n      add\n        /* \"#utility.yul\":5934:5987   */\n      tag_59\n      jump\t// in\n    tag_161:\n        /* \"#utility.yul\":5924:5987   */\n      swap2\n      pop\n        /* \"#utility.yul\":5879:5997   */\n      pop\n        /* \"#utility.yul\":5350:6004   */\n      swap3\n      pop\n      swap3\n      swap1\n      pop\n      jump\t// out\n        /* \"#utility.yul\":6010:6190   */\n    tag_75:\n        /* \"#utility.yul\":6058:6135   */\n      0x4e487b7100000000000000000000000000000000000000000000000000000000\n        /* \"#utility.yul\":6055:6056   */\n      0x00\n        /* \"#utility.yul\":6048:6136   */\n      mstore\n        /* \"#utility.yul\":6155:6159   */\n      0x22\n        /* \"#utility.yul\":6152:6153   */\n      0x04\n        /* \"#utility.yul\":6145:6160   */\n      mstore\n        /* \"#utility.yul\":6179:6183   */\n      0x24\n        /* \"#utility.yul\":6176:6177   */\n      0x00\n        /* \"#utility.yul\":6169:6184   */\n      revert\n        /* \"#utility.yul\":6196:6516   */\n    tag_37:\n        /* \"#utility.yul\":6240:6246   */\n      0x00\n        /* \"#utility.yul\":6277:6278   */\n      0x02\n        /* \"#utility.yul\":6271:6275   */\n      dup3\n        /* \"#utility.yul\":6267:6279   */\n      div\n        /* \"#utility.yul\":6257:6279   */\n      swap1\n      pop\n        /* \"#utility.yul\":6324:6325   */\n      0x01\n        /* \"#utility.yul\":6318:6322   */\n      dup3\n        /* \"#utility.yul\":6314:6326   */\n      and\n        /* \"#utility.yul\":6345:6363   */\n      dup1\n        /* \"#utility.yul\":6335:6416   */\n      tag_164\n      jumpi\n        /* \"#utility.yul\":6401:6405   */\n      0x7f\n        /* \"#utility.yul\":6393:6399   */\n      dup3\n        /* \"#utility.yul\":6389:6406   */\n      and\n        /* \"#utility.yul\":6379:6406   */\n      swap2\n      pop\n        /* \"#utility.yul\":6335:6416   */\n    tag_164:\n        /* \"#utility.yul\":6463:6465   */\n      0x20\n        /* \"#utility.yul\":6455:6461   */\n      dup3\n        /* \"#utility.yul\":6452:6466   */\n      lt\n        /* \"#utility.yul\":6432:6450   */\n      dup2\n        /* \"#utility.yul\":6429:6467   */\n      sub\n        /* \"#utility.yul\":6426:6510   */\n      tag_165\n      jumpi\n        /* \"#utility.yul\":6482:6500   */\n      tag_166\n      tag_75\n      jump\t// in\n    tag_166:\n        /* \"#utility.yul\":6426:6510   */\n    tag_165:\n        /* \"#utility.yul\":6247:6516   */\n      pop\n        /* \"#utility.yul\":6196:6516   */\n      swap2\n      swap1\n      pop\n      jump\t// out\n        /* \"#utility.yul\":6522:6702   */\n    tag_76:\n        /* \"#utility.yul\":6570:6647   */\n      0x4e487b7100000000000000000000000000000000000000000000000000000000\n        /* \"#utility.yul\":6567:6568   */\n      0x00\n        /* \"#utility.yul\":6560:6648   */\n      mstore\n        /* \"#utility.yul\":6667:6671   */\n      0x11\n        /* \"#utility.yul\":6664:6665   */\n      0x04\n        /* \"#utility.yul\":6657:6672   */\n      mstore\n        /* \"#utility.yul\":6691:6695   */\n      0x24\n        /* \"#utility.yul\":6688:6689   */\n      0x00\n        /* \"#utility.yul\":6681:6696   */\n      revert\n        /* \"#utility.yul\":6708:6899   */\n    tag_45:\n        /* \"#utility.yul\":6748:6751   */\n      0x00\n        /* \"#utility.yul\":6767:6787   */\n      tag_169\n        /* \"#utility.yul\":6785:6786   */\n      dup3\n        /* \"#utility.yul\":6767:6787   */\n      tag_57\n      jump\t// in\n    tag_169:\n        /* \"#utility.yul\":6762:6787   */\n      swap2\n      pop\n        /* \"#utility.yul\":6801:6821   */\n      tag_170\n        /* \"#utility.yul\":6819:6820   */\n      dup4\n        /* \"#utility.yul\":6801:6821   */\n      tag_57\n      jump\t// in\n    tag_170:\n        /* \"#utility.yul\":6796:6821   */\n      swap3\n      pop\n        /* \"#utility.yul\":6844:6845   */\n      dup3\n        /* \"#utility.yul\":6841:6842   */\n      dup3\n        /* \"#utility.yul\":6837:6846   */\n      add\n        /* \"#utility.yul\":6830:6846   */\n      swap1\n      pop\n        /* \"#utility.yul\":6865:6868   */\n      dup1\n        /* \"#utility.yul\":6862:6863   */\n      dup3\n        /* \"#utility.yul\":6859:6869   */\n      gt\n        /* \"#utility.yul\":6856:6892   */\n      iszero\n      tag_171\n      jumpi\n        /* \"#utility.yul\":6872:6890   */\n      tag_172\n      tag_76\n      jump\t// in\n    tag_172:\n        /* \"#utility.yul\":6856:6892   */\n    tag_171:\n        /* \"#utility.yul\":6708:6899   */\n      swap3\n      swap2\n      pop\n      pop\n      jump\t// out\n        /* \"#utility.yul\":6905:7053   */\n    tag_77:\n        /* \"#utility.yul\":7007:7018   */\n      0x00\n        /* \"#utility.yul\":7044:7047   */\n      dup2\n        /* \"#utility.yul\":7029:7047   */\n      swap1\n      pop\n        /* \"#utility.yul\":6905:7053   */\n      swap3\n      swap2\n      pop\n      pop\n      jump\t// out\n        /* \"#utility.yul\":7059:7449   */\n    tag_78:\n        /* \"#utility.yul\":7165:7168   */\n      0x00\n        /* \"#utility.yul\":7193:7232   */\n      tag_175\n        /* \"#utility.yul\":7226:7231   */\n      dup3\n        /* \"#utility.yul\":7193:7232   */\n      tag_60\n      jump\t// in\n    tag_175:\n        /* \"#utility.yul\":7248:7337   */\n      tag_176\n        /* \"#utility.yul\":7330:7336   */\n      dup2\n        /* \"#utility.yul\":7325:7328   */\n      dup6\n        /* \"#utility.yul\":7248:7337   */\n      tag_77\n      jump\t// in\n    tag_176:\n        /* \"#utility.yul\":7241:7337   */\n      swap4\n      pop\n        /* \"#utility.yul\":7346:7411   */\n      tag_177\n        /* \"#utility.yul\":7404:7410   */\n      dup2\n        /* \"#utility.yul\":7399:7402   */\n      dup6\n        /* \"#utility.yul\":7392:7396   */\n      0x20\n        /* \"#utility.yul\":7385:7390   */\n      dup7\n        /* \"#utility.yul\":7381:7397   */\n      add\n        /* \"#utility.yul\":7346:7411   */\n      tag_62\n      jump\t// in\n    tag_177:\n        /* \"#utility.yul\":7436:7442   */\n      dup1\n        /* \"#utility.yul\":7431:7434   */\n      dup5\n        /* \"#utility.yul\":7427:7443   */\n      add\n        /* \"#utility.yul\":7420:7443   */\n      swap2\n      pop\n        /* \"#utility.yul\":7169:7449   */\n      pop\n        /* \"#utility.yul\":7059:7449   */\n      swap3\n      swap2\n      pop\n      pop\n      jump\t// out\n        /* \"#utility.yul\":7455:7730   */\n    tag_48:\n        /* \"#utility.yul\":7587:7590   */\n      0x00\n        /* \"#utility.yul\":7609:7704   */\n      tag_179\n        /* \"#utility.yul\":7700:7703   */\n      dup3\n        /* \"#utility.yul\":7691:7697   */\n      dup5\n        /* \"#utility.yul\":7609:7704   */\n      tag_78\n      jump\t// in\n    tag_179:\n        /* \"#utility.yul\":7602:7704   */\n      swap2\n      pop\n        /* \"#utility.yul\":7721:7724   */\n      dup2\n        /* \"#utility.yul\":7714:7724   */\n      swap1\n      pop\n        /* \"#utility.yul\":7455:7730   */\n      swap3\n      swap2\n      pop\n      pop\n      jump\t// out\n        /* \"#utility.yul\":7736:7877   */\n    tag_79:\n        /* \"#utility.yul\":7785:7789   */\n      0x00\n        /* \"#utility.yul\":7808:7811   */\n      dup2\n        /* \"#utility.yul\":7800:7811   */\n      swap1\n      pop\n        /* \"#utility.yul\":7831:7834   */\n      dup2\n        /* \"#utility.yul\":7828:7829   */\n      0x00\n        /* \"#utility.yul\":7821:7835   */\n      mstore\n        /* \"#utility.yul\":7865:7869   */\n      0x20\n        /* \"#utility.yul\":7862:7863   */\n      0x00\n        /* \"#utility.yul\":7852:7870   */\n      keccak256\n        /* \"#utility.yul\":7844:7870   */\n      swap1\n      pop\n        /* \"#utility.yul\":7736:7877   */\n      swap2\n      swap1\n      pop\n      jump\t// out\n        /* \"#utility.yul\":7883:7976   */\n    tag_80:\n        /* \"#utility.yul\":7920:7926   */\n      0x00\n        /* \"#utility.yul\":7967:7969   */\n      0x20\n        /* \"#utility.yul\":7962:7964   */\n      0x1f\n        /* \"#utility.yul\":7955:7960   */\n      dup4\n        /* \"#utility.yul\":7951:7965   */\n      add\n        /* \"#utility.yul\":7947:7970   */\n      div\n        /* \"#utility.yul\":7937:7970   */\n      swap1\n      pop\n        /* \"#utility.yul\":7883:7976   */\n      swap2\n      swap1\n      pop\n      jump\t// out\n        /* \"#utility.yul\":7982:8089   */\n    tag_81:\n        /* \"#utility.yul\":8026:8034   */\n      0x00\n        /* \"#utility.yul\":8076:8081   */\n      dup3\n        /* \"#utility.yul\":8070:8074   */\n      dup3\n        /* \"#utility.yul\":8066:8082   */\n      shl\n        /* \"#utility.yul\":8045:8082   */\n      swap1\n      pop\n        /* \"#utility.yul\":7982:8089   */\n      swap3\n      swap2\n      pop\n      pop\n      jump\t// out\n        /* \"#utility.yul\":8095:8488   */\n    tag_82:\n        /* \"#utility.yul\":8164:8170   */\n      0x00\n        /* \"#utility.yul\":8214:8215   */\n      0x08\n        /* \"#utility.yul\":8202:8212   */\n      dup4\n        /* \"#utility.yul\":8198:8216   */\n      mul\n        /* \"#utility.yul\":8237:8334   */\n      tag_184\n        /* \"#utility.yul\":8267:8333   */\n      0xffffffffffffffffffffffffffffffffffffffffffffffffffffffffffffffff\n        /* \"#utility.yul\":8256:8265   */\n      dup3\n        /* \"#utility.yul\":8237:8334   */\n      tag_81\n      jump\t// in\n    tag_184:\n        /* \"#utility.yul\":8355:8394   */\n      tag_185\n        /* \"#utility.yul\":8385:8393   */\n      dup7\n        /* \"#utility.yul\":8374:8383   */\n      dup4\n        /* \"#utility.yul\":8355:8394   */\n      tag_81\n      jump\t// in\n    tag_185:\n        /* \"#utility.yul\":8343:8394   */\n      swap6\n      pop\n        /* \"#utility.yul\":8427:8431   */\n      dup1\n        /* \"#utility.yul\":8423:8432   */\n      not\n        /* \"#utility.yul\":8416:8421   */\n      dup5\n        /* \"#utility.yul\":8412:8433   */\n      and\n        /* \"#utility.yul\":8403:8433   */\n      swap4\n      pop\n        /* \"#utility.yul\":8476:8480   */\n      dup1\n        /* \"#utility.yul\":8466:8474   */\n      dup7\n        /* \"#utility.yul\":8462:8481   */\n      and\n        /* \"#utility.yul\":8455:8460   */\n      dup5\n        /* \"#utility.yul\":8452:8482   */\n      or\n        /* \"#utility.yul\":8442:8482   */\n      swap3\n      pop\n        /* \"#utility.yul\":8171:8488   */\n      pop\n      pop\n        /* \"#utility.yul\":8095:8488   */\n      swap4\n      swap3\n      pop\n      pop\n      pop\n      jump\t// out\n        /* \"#utility.yul\":8494:8554   */\n    tag_83:\n        /* \"#utility.yul\":8522:8525   */\n      0x00\n        /* \"#utility.yul\":8543:8548   */\n      dup2\n        /* \"#utility.yul\":8536:8548   */\n      swap1\n      pop\n        /* \"#utility.yul\":8494:8554   */\n      swap2\n      swap1\n      pop\n      jump\t// out\n        /* \"#utility.yul\":8560:8702   */\n    tag_84:\n        /* \"#utility.yul\":8610:8619   */\n      0x00\n        /* \"#utility.yul\":8643:8696   */\n      tag_188\n        /* \"#utility.yul\":8661:8695   */\n      tag_189\n        /* \"#utility.yul\":8670:8694   */\n      tag_190\n        /* \"#utility.yul\":8688:8693   */\n      dup5\n        /* \"#utility.yul\":8670:8694   */\n      tag_57\n      jump\t// in\n    tag_190:\n        /* \"#utility.yul\":8661:8695   */\n      tag_83\n      jump\t// in\n    tag_189:\n        /* \"#utility.yul\":8643:8696   */\n      tag_57\n      jump\t// in\n    tag_188:\n        /* \"#utility.yul\":8630:8696   */\n      swap1\n      pop\n        /* \"#utility.yul\":8560:8702   */\n      swap2\n      swap1\n      pop\n      jump\t// out\n        /* \"#utility.yul\":8708:8783   */\n    tag_85:\n        /* \"#utility.yul\":8751:8754   */\n      0x00\n        /* \"#utility.yul\":8772:8777   */\n      dup2\n        /* \"#utility.yul\":8765:8777   */\n      swap1\n      pop\n        /* \"#utility.yul\":8708:8783   */\n      swap2\n      swap1\n      pop\n      jump\t// out\n        /* \"#utility.yul\":8789:9058   */\n    tag_86:\n        /* \"#utility.yul\":8899:8938   */\n      tag_193\n        /* \"#utility.yul\":8930:8937   */\n      dup4\n        /* \"#utility.yul\":8899:8938   */\n      tag_84\n      jump\t// in\n    tag_193:\n        /* \"#utility.yul\":8960:9051   */\n      tag_194\n        /* \"#utility.yul\":9009:9050   */\n      tag_195\n        /* \"#utility.yul\":9033:9049   */\n      dup3\n        /* \"#utility.yul\":9009:9050   */\n      tag_85\n      jump\t// in\n    tag_195:\n        /* \"#utility.yul\":9001:9007   */\n      dup5\n        /* \"#utility.yul\":8994:8998   */\n      dup5\n        /* \"#utility.yul\":8988:8999   */\n      sload\n        /* \"#utility.yul\":8960:9051   */\n      tag_82\n      jump\t// in\n    tag_194:\n        /* \"#utility.yul\":8954:8958   */\n      dup3\n        /* \"#utility.yul\":8947:9052   */\n      sstore\n        /* \"#utility.yul\":8865:9058   */\n      pop\n        /* \"#utility.yul\":8789:9058   */\n      pop\n      pop\n      pop\n      jump\t// out\n        /* \"#utility.yul\":9064:9137   */\n    tag_87:\n        /* \"#utility.yul\":9109:9112   */\n      0x00\n        /* \"#utility.yul\":9064:9137   */\n      swap1\n      jump\t// out\n        /* \"#utility.yul\":9143:9332   */\n    tag_88:\n        /* \"#utility.yul\":9220:9252   */\n      tag_198\n      tag_87\n      jump\t// in\n    tag_198:\n        /* \"#utility.yul\":9261:9326   */\n      tag_199\n        /* \"#utility.yul\":9319:9325   */\n      dup2\n        /* \"#utility.yul\":9311:9317   */\n      dup5\n        /* \"#utility.yul\":9305:9309   */\n      dup5\n        /* \"#utility.yul\":9261:9326   */\n      tag_86\n      jump\t// in\n    tag_199:\n        /* \"#utility.yul\":9196:9332   */\n      pop\n        /* \"#utility.yul\":9143:9332   */\n      pop\n      pop\n      jump\t// out\n        /* \"#utility.yul\":9338:9524   */\n    tag_89:\n        /* \"#utility.yul\":9398:9518   */\n    tag_201:\n        /* \"#utility.yul\":9415:9418   */\n      dup2\n        /* \"#utility.yul\":9408:9413   */\n      dup2\n        /* \"#utility.yul\":9405:9419   */\n      lt\n        /* \"#utility.yul\":9398:9518   */\n      iszero\n      tag_203\n      jumpi\n        /* \"#utility.yul\":9469:9508   */\n      tag_204\n        /* \"#utility.yul\":9506:9507   */\n      0x00\n        /* \"#utility.yul\":9499:9504   */\n      dup3\n        /* \"#utility.yul\":9469:9508   */\n      tag_88\n      jump\t// in\n    tag_204:\n        /* \"#utility.yul\":9442:9443   */\n      0x01\n        /* \"#utility.yul\":9435:9440   */\n      dup2\n        /* \"#utility.yul\":9431:9444   */\n      add\n        /* \"#utility.yul\":9422:9444   */\n      swap1\n      pop\n        /* \"#utility.yul\":9398:9518   */\n      jump(tag_201)\n    tag_203:\n        /* \"#utility.yul\":9338:9524   */\n      pop\n      pop\n      jump\t// out\n        /* \"#utility.yul\":9530:10073   */\n    tag_90:\n        /* \"#utility.yul\":9631:9633   */\n      0x1f\n        /* \"#utility.yul\":9626:9629   */\n      dup3\n        /* \"#utility.yul\":9623:9634   */\n      gt\n        /* \"#utility.yul\":9620:10066   */\n      iszero\n      tag_206\n      jumpi\n        /* \"#utility.yul\":9665:9703   */\n      tag_207\n        /* \"#utility.yul\":9697:9702   */\n      dup2\n        /* \"#utility.yul\":9665:9703   */\n      tag_79\n      jump\t// in\n    tag_207:\n        /* \"#utility.yul\":9749:9778   */\n      tag_208\n        /* \"#utility.yul\":9767:9777   */\n      dup5\n        /* \"#utility.yul\":9749:9778   */\n      tag_80\n      jump\t// in\n    tag_208:\n        /* \"#utility.yul\":9739:9747   */\n      dup2\n        /* \"#utility.yul\":9735:9779   */\n      add\n        /* \"#utility.yul\":9932:9934   */\n      0x20\n        /* \"#utility.yul\":9920:9930   */\n      dup6\n        /* \"#utility.yul\":9917:9935   */\n      lt\n        /* \"#utility.yul\":9914:9963   */\n      iszero\n      tag_209\n      jumpi\n        /* \"#utility.yul\":9953:9961   */\n      dup2\n        /* \"#utility.yul\":9938:9961   */\n      swap1\n      pop\n        /* \"#utility.yul\":9914:9963   */\n    tag_209:\n        /* \"#utility.yul\":9976:10056   */\n      tag_210\n        /* \"#utility.yul\":10032:10054   */\n      tag_211\n        /* \"#utility.yul\":10050:10053   */\n      dup6\n        /* \"#utility.yul\":10032:10054   */\n      tag_80\n      jump\t// in\n    tag_211:\n        /* \"#utility.yul\":10022:10030   */\n      dup4\n        /* \"#utility.yul\":10018:10055   */\n      add\n        /* \"#utility.yul\":10005:10016   */\n      dup3\n        /* \"#utility.yul\":9976:10056   */\n      tag_89\n      jump\t// in\n    tag_210:\n        /* \"#utility.yul\":9635:10066   */\n      pop\n      pop\n        /* \"#utility.yul\":9620:10066   */\n    tag_206:\n        /* \"#utility.yul\":9530:10073   */\n      pop\n      pop\n      pop\n      jump\t// out\n        /* \"#utility.yul\":10079:10196   */\n    tag_91:\n        /* \"#utility.yul\":10133:10141   */\n      0x00\n        /* \"#utility.yul\":10183:10188   */\n      dup3\n        /* \"#utility.yul\":10177:10181   */\n      dup3\n        /* \"#utility.yul\":10173:10189   */\n      shr\n        /* \"#utility.yul\":10152:10189   */\n      swap1\n      pop\n        /* \"#utility.yul\":10079:10196   */\n      swap3\n      swap2\n      pop\n      pop\n      jump\t// out\n        /* \"#utility.yul\":10202:10371   */\n    tag_92:\n        /* \"#utility.yul\":10246:10252   */\n      0x00\n        /* \"#utility.yul\":10279:10330   */\n      tag_214\n        /* \"#utility.yul\":10327:10328   */\n      0x00\n        /* \"#utility.yul\":10323:10329   */\n      not\n        /* \"#utility.yul\":10315:10320   */\n      dup5\n        /* \"#utility.yul\":10312:10313   */\n      0x08\n        /* \"#utility.yul\":10308:10321   */\n      mul\n        /* \"#utility.yul\":10279:10330   */\n      tag_91\n      jump\t// in\n    tag_214:\n        /* \"#utility.yul\":10275:10331   */\n      not\n        /* \"#utility.yul\":10360:10364   */\n      dup1\n        /* \"#utility.yul\":10354:10358   */\n      dup4\n        /* \"#utility.yul\":10350:10365   */\n      and\n        /* \"#utility.yul\":10340:10365   */\n      swap2\n      pop\n        /* \"#utility.yul\":10253:10371   */\n      pop\n        /* \"#utility.yul\":10202:10371   */\n      swap3\n      swap2\n      pop\n      pop\n      jump\t// out\n        /* \"#utility.yul\":10376:10671   */\n    tag_93:\n        /* \"#utility.yul\":10452:10456   */\n      0x00\n        /* \"#utility.yul\":10598:10627   */\n      tag_216\n        /* \"#utility.yul\":10623:10626   */\n      dup4\n        /* \"#utility.yul\":10617:10621   */\n      dup4\n        /* \"#utility.yul\":10598:10627   */\n      tag_92\n      jump\t// in\n    tag_216:\n        /* \"#utility.yul\":10590:10627   */\n      swap2\n      pop\n        /* \"#utility.yul\":10660:10663   */\n      dup3\n        /* \"#utility.yul\":10657:10658   */\n      0x02\n        /* \"#utility.yul\":10653:10664   */\n      mul\n        /* \"#utility.yul\":10647:10651   */\n      dup3\n        /* \"#utility.yul\":10644:10665   */\n      or\n        /* \"#utility.yul\":10636:10665   */\n      swap1\n      pop\n        /* \"#utility.yul\":10376:10671   */\n      swap3\n      swap2\n      pop\n      pop\n      jump\t// out\n        /* \"#utility.yul\":10676:12071   */\n    tag_52:\n        /* \"#utility.yul\":10793:10830   */\n      tag_218\n        /* \"#utility.yul\":10826:10829   */\n      dup3\n        /* \"#utility.yul\":10793:10830   */\n      tag_60\n      jump\t// in\n    tag_218:\n        /* \"#utility.yul\":10895:10913   */\n      0xffffffffffffffff\n        /* \"#utility.yul\":10887:10893   */\n      dup2\n        /* \"#utility.yul\":10884:10914   */\n      gt\n        /* \"#utility.yul\":10881:10937   */\n      iszero\n      tag_219\n      jumpi\n        /* \"#utility.yul\":10917:10935   */\n      tag_220\n      tag_68\n      jump\t// in\n    tag_220:\n        /* \"#utility.yul\":10881:10937   */\n    tag_219:\n        /* \"#utility.yul\":10961:10999   */\n      tag_221\n        /* \"#utility.yul\":10993:10997   */\n      dup3\n        /* \"#utility.yul\":10987:10998   */\n      sload\n        /* \"#utility.yul\":10961:10999   */\n      tag_37\n      jump\t// in\n    tag_221:\n        /* \"#utility.yul\":11046:11113   */\n      tag_222\n        /* \"#utility.yul\":11106:11112   */\n      dup3\n        /* \"#utility.yul\":11098:11104   */\n      dup3\n        /* \"#utility.yul\":11092:11096   */\n      dup6\n        /* \"#utility.yul\":11046:11113   */\n      tag_90\n      jump\t// in\n    tag_222:\n        /* \"#utility.yul\":11140:11141   */\n      0x00\n        /* \"#utility.yul\":11164:11168   */\n      0x20\n        /* \"#utility.yul\":11151:11168   */\n      swap1\n      pop\n        /* \"#utility.yul\":11196:11198   */\n      0x1f\n        /* \"#utility.yul\":11188:11194   */\n      dup4\n        /* \"#utility.yul\":11185:11199   */\n      gt\n        /* \"#utility.yul\":11213:11214   */\n      0x01\n        /* \"#utility.yul\":11208:11826   */\n      dup2\n      eq\n      tag_224\n      jumpi\n        /* \"#utility.yul\":11870:11871   */\n      0x00\n        /* \"#utility.yul\":11887:11893   */\n      dup5\n        /* \"#utility.yul\":11884:11961   */\n      iszero\n      tag_225\n      jumpi\n        /* \"#utility.yul\":11936:11945   */\n      dup3\n        /* \"#utility.yul\":11931:11934   */\n      dup8\n        /* \"#utility.yul\":11927:11946   */\n      add\n        /* \"#utility.yul\":11921:11947   */\n      mload\n        /* \"#utility.yul\":11912:11947   */\n      swap1\n      pop\n        /* \"#utility.yul\":11884:11961   */\n    tag_225:\n        /* \"#utility.yul\":11987:12054   */\n      tag_226\n        /* \"#utility.yul\":12047:12053   */\n      dup6\n        /* \"#utility.yul\":12040:12045   */\n      dup3\n        /* \"#utility.yul\":11987:12054   */\n      tag_93\n      jump\t// in\n    tag_226:\n        /* \"#utility.yul\":11981:11985   */\n      dup7\n        /* \"#utility.yul\":11974:12055   */\n      sstore\n        /* \"#utility.yul\":11843:12065   */\n      pop\n        /* \"#utility.yul\":11178:12065   */\n      jump(tag_223)\n        /* \"#utility.yul\":11208:11826   */\n    tag_224:\n        /* \"#utility.yul\":11260:11264   */\n      0x1f\n        /* \"#utility.yul\":11256:11265   */\n      not\n        /* \"#utility.yul\":11248:11254   */\n      dup5\n        /* \"#utility.yul\":11244:11266   */\n      and\n        /* \"#utility.yul\":11294:11331   */\n      tag_227\n        /* \"#utility.yul\":11326:11330   */\n      dup7\n        /* \"#utility.yul\":11294:11331   */\n      tag_79\n      jump\t// in\n    tag_227:\n        /* \"#utility.yul\":11353:11354   */\n      0x00\n        /* \"#utility.yul\":11367:11575   */\n    tag_228:\n        /* \"#utility.yul\":11381:11388   */\n      dup3\n        /* \"#utility.yul\":11378:11379   */\n      dup2\n        /* \"#utility.yul\":11375:11389   */\n      lt\n        /* \"#utility.yul\":11367:11575   */\n      iszero\n      tag_230\n      jumpi\n        /* \"#utility.yul\":11460:11469   */\n      dup5\n        /* \"#utility.yul\":11455:11458   */\n      dup10\n        /* \"#utility.yul\":11451:11470   */\n      add\n        /* \"#utility.yul\":11445:11471   */\n      mload\n        /* \"#utility.yul\":11437:11443   */\n      dup3\n        /* \"#utility.yul\":11430:11472   */\n      sstore\n        /* \"#utility.yul\":11511:11512   */\n      0x01\n        /* \"#utility.yul\":11503:11509   */\n      dup3\n        /* \"#utility.yul\":11499:11513   */\n      add\n        /* \"#utility.yul\":11489:11513   */\n      swap2\n      pop\n        /* \"#utility.yul\":11558:11560   */\n      0x20\n        /* \"#utility.yul\":11547:11556   */\n      dup6\n        /* \"#utility.yul\":11543:11561   */\n      add\n        /* \"#utility.yul\":11530:11561   */\n      swap5\n      pop\n        /* \"#utility.yul\":11404:11408   */\n      0x20\n        /* \"#utility.yul\":11401:11402   */\n      dup2\n        /* \"#utility.yul\":11397:11409   */\n      add\n        /* \"#utility.yul\":11392:11409   */\n      swap1\n      pop\n        /* \"#utility.yul\":11367:11575   */\n      jump(tag_228)\n    tag_230:\n        /* \"#utility.yul\":11603:11609   */\n      dup7\n        /* \"#utility.yul\":11594:11601   */\n      dup4\n        /* \"#utility.yul\":11591:11610   */\n      lt\n        /* \"#utility.yul\":11588:11767   */\n      iszero\n      tag_231\n      jumpi\n        /* \"#utility.yul\":11661:11670   */\n      dup5\n        /* \"#utility.yul\":11656:11659   */\n      dup10\n        /* \"#utility.yul\":11652:11671   */\n      add\n        /* \"#utility.yul\":11646:11672   */\n      mload\n        /* \"#utility.yul\":11704:11752   */\n      tag_232\n        /* \"#utility.yul\":11746:11750   */\n      0x1f\n        /* \"#utility.yul\":11738:11744   */\n      dup10\n        /* \"#utility.yul\":11734:11751   */\n      and\n        /* \"#utility.yul\":11723:11732   */\n      dup3\n        /* \"#utility.yul\":11704:11752   */\n      tag_92\n      jump\t// in\n    tag_232:\n        /* \"#utility.yul\":11696:11702   */\n      dup4\n        /* \"#utility.yul\":11689:11753   */\n      sstore\n        /* \"#utility.yul\":11611:11767   */\n      pop\n        /* \"#utility.yul\":11588:11767   */\n    tag_231:\n        /* \"#utility.yul\":11813:11814   */\n      0x01\n        /* \"#utility.yul\":11809:11810   */\n      0x02\n        /* \"#utility.yul\":11801:11807   */\n      dup9\n        /* \"#utility.yul\":11797:11811   */\n      mul\n        /* \"#utility.yul\":11793:11815   */\n      add\n        /* \"#utility.yul\":11787:11791   */\n      dup9\n        /* \"#utility.yul\":11780:11816   */\n      sstore\n        /* \"#utility.yul\":11215:11826   */\n      pop\n      pop\n      pop\n        /* \"#utility.yul\":11178:12065   */\n    tag_223:\n      pop\n        /* \"#utility.yul\":10768:12071   */\n      pop\n      pop\n      pop\n        /* \"#utility.yul\":10676:12071   */\n      pop\n      pop\n      jump\t// out\n\n    auxdata: 0xa26469706673582212200ff2822b613dcdf888d02cde874e75324e05ccaddf41e4fc96e1cc5f22d1a7eb64736f6c634300081a0033\n}\n",
				"bytecode": {
					"linkReferences": {},
					"object": "6080604052348015600e575f80fd5b5061096c8061001c5f395ff3fe608060405234801561000f575f80fd5b5060043610610060575f3560e01c806326fd5ebe146100645780632e64cec1146100955780636057361d146100b357806369934e47146100cf5780636f760f41146100ff578063b8b1d7af1461011b575b5f80fd5b61007e600480360381019061007991906102ff565b610139565b60405161008c9291906103a9565b60405180910390f35b61009d6101ee565b6040516100aa91906103d7565b60405180910390f35b6100cd60048036038101906100c891906102ff565b6101f6565b005b6100e960048036038101906100e4919061051c565b61020b565b6040516100f691906103d7565b60405180910390f35b61011960048036038101906101149190610563565b610232565b005b6101236102b6565b60405161013091906103d7565b60405180910390f35b60018181548110610148575f80fd5b905f5260205f2090600202015f91509050805f018054610167906105ea565b80601f0160208091040260200160405190810160405280929190818152602001828054610193906105ea565b80156101de5780601f106101b5576101008083540402835291602001916101de565b820191905f5260205f20905b8154815290600101906020018083116101c157829003601f168201915b5050505050908060010154905082565b5f8054905090565b6005816102039190610647565b5f8190555050565b5f60028260405161021c91906106b4565b9081526020016040518091039020549050919050565b6001604051806040016040528084815260200183815250908060018154018082558091505060019003905f5260205f2090600202015f909190919091505f820151815f0190816102829190610867565b50602082015181600101555050806002836040516102a091906106b4565b9081526020016040518091039020819055505050565b5f5481565b5f604051905090565b5f80fd5b5f80fd5b5f819050919050565b6102de816102cc565b81146102e8575f80fd5b50565b5f813590506102f9816102d5565b92915050565b5f60208284031215610314576103136102c4565b5b5f610321848285016102eb565b91505092915050565b5f81519050919050565b5f82825260208201905092915050565b8281835e5f83830152505050565b5f601f19601f8301169050919050565b5f61036c8261032a565b6103768185610334565b9350610386818560208601610344565b61038f81610352565b840191505092915050565b6103a3816102cc565b82525050565b5f6040820190508181035f8301526103c18185610362565b90506103d0602083018461039a565b9392505050565b5f6020820190506103ea5f83018461039a565b92915050565b5f80fd5b5f80fd5b7f4e487b71000000000000000000000000000000000000000000000000000000005f52604160045260245ffd5b61042e82610352565b810181811067ffffffffffffffff8211171561044d5761044c6103f8565b5b80604052505050565b5f61045f6102bb565b905061046b8282610425565b919050565b5f67ffffffffffffffff82111561048a576104896103f8565b5b61049382610352565b9050602081019050919050565b828183375f83830152505050565b5f6104c06104bb84610470565b610456565b9050828152602081018484840111156104dc576104db6103f4565b5b6104e78482856104a0565b509392505050565b5f82601f830112610503576105026103f0565b5b81356105138482602086016104ae565b91505092915050565b5f60208284031215610531576105306102c4565b5b5f82013567ffffffffffffffff81111561054e5761054d6102c8565b5b61055a848285016104ef565b91505092915050565b5f8060408385031215610579576105786102c4565b5b5f83013567ffffffffffffffff811115610596576105956102c8565b5b6105a2858286016104ef565b92505060206105b3858286016102eb565b9150509250929050565b7f4e487b71000000000000000000000000000000000000000000000000000000005f52602260045260245ffd5b5f600282049050600182168061060157607f821691505b602082108103610614576106136105bd565b5b50919050565b7f4e487b71000000000000000000000000000000000000000000000000000000005f52601160045260245ffd5b5f610651826102cc565b915061065c836102cc565b92508282019050808211156106745761067361061a565b5b92915050565b5f81905092915050565b5f61068e8261032a565b610698818561067a565b93506106a8818560208601610344565b80840191505092915050565b5f6106bf8284610684565b915081905092915050565b5f819050815f5260205f209050919050565b5f6020601f8301049050919050565b5f82821b905092915050565b5f600883026107267fffffffffffffffffffffffffffffffffffffffffffffffffffffffffffffffff826106eb565b61073086836106eb565b95508019841693508086168417925050509392505050565b5f819050919050565b5f61076b610766610761846102cc565b610748565b6102cc565b9050919050565b5f819050919050565b61078483610751565b61079861079082610772565b8484546106f7565b825550505050565b5f90565b6107ac6107a0565b6107b781848461077b565b505050565b5b818110156107da576107cf5f826107a4565b6001810190506107bd565b5050565b601f82111561081f576107f0816106ca565b6107f9846106dc565b81016020851015610808578190505b61081c610814856106dc565b8301826107bc565b50505b505050565b5f82821c905092915050565b5f61083f5f1984600802610824565b1980831691505092915050565b5f6108578383610830565b9150826002028217905092915050565b6108708261032a565b67ffffffffffffffff811115610889576108886103f8565b5b61089382546105ea565b61089e8282856107de565b5f60209050601f8311600181146108cf575f84156108bd578287015190505b6108c7858261084c565b86555061092e565b601f1984166108dd866106ca565b5f5b82811015610904578489015182556001820191506020850194506020810190506108df565b86831015610921578489015161091d601f891682610830565b8355505b6001600288020188555050505b50505050505056fea26469706673582212200ff2822b613dcdf888d02cde874e75324e05ccaddf41e4fc96e1cc5f22d1a7eb64736f6c634300081a0033",
					"opcodes": "PUSH1 0x80 PUSH1 0x40 MSTORE CALLVALUE DUP1 ISZERO PUSH1 0xE JUMPI PUSH0 DUP1 REVERT JUMPDEST POP PUSH2 0x96C DUP1 PUSH2 0x1C PUSH0 CODECOPY PUSH0 RETURN INVALID PUSH1 0x80 PUSH1 0x40 MSTORE CALLVALUE DUP1 ISZERO PUSH2 0xF JUMPI PUSH0 DUP1 REVERT JUMPDEST POP PUSH1 0x4 CALLDATASIZE LT PUSH2 0x60 JUMPI PUSH0 CALLDATALOAD PUSH1 0xE0 SHR DUP1 PUSH4 0x26FD5EBE EQ PUSH2 0x64 JUMPI DUP1 PUSH4 0x2E64CEC1 EQ PUSH2 0x95 JUMPI DUP1 PUSH4 0x6057361D EQ PUSH2 0xB3 JUMPI DUP1 PUSH4 0x69934E47 EQ PUSH2 0xCF JUMPI DUP1 PUSH4 0x6F760F41 EQ PUSH2 0xFF JUMPI DUP1 PUSH4 0xB8B1D7AF EQ PUSH2 0x11B JUMPI JUMPDEST PUSH0 DUP1 REVERT JUMPDEST PUSH2 0x7E PUSH1 0x4 DUP1 CALLDATASIZE SUB DUP2 ADD SWAP1 PUSH2 0x79 SWAP2 SWAP1 PUSH2 0x2FF JUMP JUMPDEST PUSH2 0x139 JUMP JUMPDEST PUSH1 0x40 MLOAD PUSH2 0x8C SWAP3 SWAP2 SWAP1 PUSH2 0x3A9 JUMP JUMPDEST PUSH1 0x40 MLOAD DUP1 SWAP2 SUB SWAP1 RETURN JUMPDEST PUSH2 0x9D PUSH2 0x1EE JUMP JUMPDEST PUSH1 0x40 MLOAD PUSH2 0xAA SWAP2 SWAP1 PUSH2 0x3D7 JUMP JUMPDEST PUSH1 0x40 MLOAD DUP1 SWAP2 SUB SWAP1 RETURN JUMPDEST PUSH2 0xCD PUSH1 0x4 DUP1 CALLDATASIZE SUB DUP2 ADD SWAP1 PUSH2 0xC8 SWAP2 SWAP1 PUSH2 0x2FF JUMP JUMPDEST PUSH2 0x1F6 JUMP JUMPDEST STOP JUMPDEST PUSH2 0xE9 PUSH1 0x4 DUP1 CALLDATASIZE SUB DUP2 ADD SWAP1 PUSH2 0xE4 SWAP2 SWAP1 PUSH2 0x51C JUMP JUMPDEST PUSH2 0x20B JUMP JUMPDEST PUSH1 0x40 MLOAD PUSH2 0xF6 SWAP2 SWAP1 PUSH2 0x3D7 JUMP JUMPDEST PUSH1 0x40 MLOAD DUP1 SWAP2 SUB SWAP1 RETURN JUMPDEST PUSH2 0x119 PUSH1 0x4 DUP1 CALLDATASIZE SUB DUP2 ADD SWAP1 PUSH2 0x114 SWAP2 SWAP1 PUSH2 0x563 JUMP JUMPDEST PUSH2 0x232 JUMP JUMPDEST STOP JUMPDEST PUSH2 0x123 PUSH2 0x2B6 JUMP JUMPDEST PUSH1 0x40 MLOAD PUSH2 0x130 SWAP2 SWAP1 PUSH2 0x3D7 JUMP JUMPDEST PUSH1 0x40 MLOAD DUP1 SWAP2 SUB SWAP1 RETURN JUMPDEST PUSH1 0x1 DUP2 DUP2 SLOAD DUP2 LT PUSH2 0x148 JUMPI PUSH0 DUP1 REVERT JUMPDEST SWAP1 PUSH0 MSTORE PUSH1 0x20 PUSH0 KECCAK256 SWAP1 PUSH1 0x2 MUL ADD PUSH0 SWAP2 POP SWAP1 POP DUP1 PUSH0 ADD DUP1 SLOAD PUSH2 0x167 SWAP1 PUSH2 0x5EA JUMP JUMPDEST DUP1 PUSH1 0x1F ADD PUSH1 0x20 DUP1 SWAP2 DIV MUL PUSH1 0x20 ADD PUSH1 0x40 MLOAD SWAP1 DUP2 ADD PUSH1 0x40 MSTORE DUP1 SWAP3 SWAP2 SWAP1 DUP2 DUP2 MSTORE PUSH1 0x20 ADD DUP3 DUP1 SLOAD PUSH2 0x193 SWAP1 PUSH2 0x5EA JUMP JUMPDEST DUP1 ISZERO PUSH2 0x1DE JUMPI DUP1 PUSH1 0x1F LT PUSH2 0x1B5 JUMPI PUSH2 0x100 DUP1 DUP4 SLOAD DIV MUL DUP4 MSTORE SWAP2 PUSH1 0x20 ADD SWAP2 PUSH2 0x1DE JUMP JUMPDEST DUP3 ADD SWAP2 SWAP1 PUSH0 MSTORE PUSH1 0x20 PUSH0 KECCAK256 SWAP1 JUMPDEST DUP2 SLOAD DUP2 MSTORE SWAP1 PUSH1 0x1 ADD SWAP1 PUSH1 0x20 ADD DUP1 DUP4 GT PUSH2 0x1C1 JUMPI DUP3 SWAP1 SUB PUSH1 0x1F AND DUP3 ADD SWAP2 JUMPDEST POP POP POP POP POP SWAP1 DUP1 PUSH1 0x1 ADD SLOAD SWAP1 POP DUP3 JUMP JUMPDEST PUSH0 DUP1 SLOAD SWAP1 POP SWAP1 JUMP JUMPDEST PUSH1 0x5 DUP2 PUSH2 0x203 SWAP2 SWAP1 PUSH2 0x647 JUMP JUMPDEST PUSH0 DUP2 SWAP1 SSTORE POP POP JUMP JUMPDEST PUSH0 PUSH1 0x2 DUP3 PUSH1 0x40 MLOAD PUSH2 0x21C SWAP2 SWAP1 PUSH2 0x6B4 JUMP JUMPDEST SWAP1 DUP2 MSTORE PUSH1 0x20 ADD PUSH1 0x40 MLOAD DUP1 SWAP2 SUB SWAP1 KECCAK256 SLOAD SWAP1 POP SWAP2 SWAP1 POP JUMP JUMPDEST PUSH1 0x1 PUSH1 0x40 MLOAD DUP1 PUSH1 0x40 ADD PUSH1 0x40 MSTORE DUP1 DUP5 DUP2 MSTORE PUSH1 0x20 ADD DUP4 DUP2 MSTORE POP SWAP1 DUP1 PUSH1 0x1 DUP2 SLOAD ADD DUP1 DUP3 SSTORE DUP1 SWAP2 POP POP PUSH1 0x1 SWAP1 SUB SWAP1 PUSH0 MSTORE PUSH1 0x20 PUSH0 KECCAK256 SWAP1 PUSH1 0x2 MUL ADD PUSH0 SWAP1 SWAP2 SWAP1 SWAP2 SWAP1 SWAP2 POP PUSH0 DUP3 ADD MLOAD DUP2 PUSH0 ADD SWAP1 DUP2 PUSH2 0x282 SWAP2 SWAP1 PUSH2 0x867 JUMP JUMPDEST POP PUSH1 0x20 DUP3 ADD MLOAD DUP2 PUSH1 0x1 ADD SSTORE POP POP DUP1 PUSH1 0x2 DUP4 PUSH1 0x40 MLOAD PUSH2 0x2A0 SWAP2 SWAP1 PUSH2 0x6B4 JUMP JUMPDEST SWAP1 DUP2 MSTORE PUSH1 0x20 ADD PUSH1 0x40 MLOAD DUP1 SWAP2 SUB SWAP1 KECCAK256 DUP2 SWAP1 SSTORE POP POP POP JUMP JUMPDEST PUSH0 SLOAD DUP2 JUMP JUMPDEST PUSH0 PUSH1 0x40 MLOAD SWAP1 POP SWAP1 JUMP JUMPDEST PUSH0 DUP1 REVERT JUMPDEST PUSH0 DUP1 REVERT JUMPDEST PUSH0 DUP2 SWAP1 POP SWAP2 SWAP1 POP JUMP JUMPDEST PUSH2 0x2DE DUP2 PUSH2 0x2CC JUMP JUMPDEST DUP2 EQ PUSH2 0x2E8 JUMPI PUSH0 DUP1 REVERT JUMPDEST POP JUMP JUMPDEST PUSH0 DUP2 CALLDATALOAD SWAP1 POP PUSH2 0x2F9 DUP2 PUSH2 0x2D5 JUMP JUMPDEST SWAP3 SWAP2 POP POP JUMP JUMPDEST PUSH0 PUSH1 0x20 DUP3 DUP5 SUB SLT ISZERO PUSH2 0x314 JUMPI PUSH2 0x313 PUSH2 0x2C4 JUMP JUMPDEST JUMPDEST PUSH0 PUSH2 0x321 DUP5 DUP3 DUP6 ADD PUSH2 0x2EB JUMP JUMPDEST SWAP2 POP POP SWAP3 SWAP2 POP POP JUMP JUMPDEST PUSH0 DUP2 MLOAD SWAP1 POP SWAP2 SWAP1 POP JUMP JUMPDEST PUSH0 DUP3 DUP3 MSTORE PUSH1 0x20 DUP3 ADD SWAP1 POP SWAP3 SWAP2 POP POP JUMP JUMPDEST DUP3 DUP2 DUP4 MCOPY PUSH0 DUP4 DUP4 ADD MSTORE POP POP POP JUMP JUMPDEST PUSH0 PUSH1 0x1F NOT PUSH1 0x1F DUP4 ADD AND SWAP1 POP SWAP2 SWAP1 POP JUMP JUMPDEST PUSH0 PUSH2 0x36C DUP3 PUSH2 0x32A JUMP JUMPDEST PUSH2 0x376 DUP2 DUP6 PUSH2 0x334 JUMP JUMPDEST SWAP4 POP PUSH2 0x386 DUP2 DUP6 PUSH1 0x20 DUP7 ADD PUSH2 0x344 JUMP JUMPDEST PUSH2 0x38F DUP2 PUSH2 0x352 JUMP JUMPDEST DUP5 ADD SWAP2 POP POP SWAP3 SWAP2 POP POP JUMP JUMPDEST PUSH2 0x3A3 DUP2 PUSH2 0x2CC JUMP JUMPDEST DUP3 MSTORE POP POP JUMP JUMPDEST PUSH0 PUSH1 0x40 DUP3 ADD SWAP1 POP DUP2 DUP2 SUB PUSH0 DUP4 ADD MSTORE PUSH2 0x3C1 DUP2 DUP6 PUSH2 0x362 JUMP JUMPDEST SWAP1 POP PUSH2 0x3D0 PUSH1 0x20 DUP4 ADD DUP5 PUSH2 0x39A JUMP JUMPDEST SWAP4 SWAP3 POP POP POP JUMP JUMPDEST PUSH0 PUSH1 0x20 DUP3 ADD SWAP1 POP PUSH2 0x3EA PUSH0 DUP4 ADD DUP5 PUSH2 0x39A JUMP JUMPDEST SWAP3 SWAP2 POP POP JUMP JUMPDEST PUSH0 DUP1 REVERT JUMPDEST PUSH0 DUP1 REVERT JUMPDEST PUSH32 0x4E487B7100000000000000000000000000000000000000000000000000000000 PUSH0 MSTORE PUSH1 0x41 PUSH1 0x4 MSTORE PUSH1 0x24 PUSH0 REVERT JUMPDEST PUSH2 0x42E DUP3 PUSH2 0x352 JUMP JUMPDEST DUP2 ADD DUP2 DUP2 LT PUSH8 0xFFFFFFFFFFFFFFFF DUP3 GT OR ISZERO PUSH2 0x44D JUMPI PUSH2 0x44C PUSH2 0x3F8 JUMP JUMPDEST JUMPDEST DUP1 PUSH1 0x40 MSTORE POP POP POP JUMP JUMPDEST PUSH0 PUSH2 0x45F PUSH2 0x2BB JUMP JUMPDEST SWAP1 POP PUSH2 0x46B DUP3 DUP3 PUSH2 0x425 JUMP JUMPDEST SWAP2 SWAP1 POP JUMP JUMPDEST PUSH0 PUSH8 0xFFFFFFFFFFFFFFFF DUP3 GT ISZERO PUSH2 0x48A JUMPI PUSH2 0x489 PUSH2 0x3F8 JUMP JUMPDEST JUMPDEST PUSH2 0x493 DUP3 PUSH2 0x352 JUMP JUMPDEST SWAP1 POP PUSH1 0x20 DUP2 ADD SWAP1 POP SWAP2 SWAP1 POP JUMP JUMPDEST DUP3 DUP2 DUP4 CALLDATACOPY PUSH0 DUP4 DUP4 ADD MSTORE POP POP POP JUMP JUMPDEST PUSH0 PUSH2 0x4C0 PUSH2 0x4BB DUP5 PUSH2 0x470 JUMP JUMPDEST PUSH2 0x456 JUMP JUMPDEST SWAP1 POP DUP3 DUP2 MSTORE PUSH1 0x20 DUP2 ADD DUP5 DUP5 DUP5 ADD GT ISZERO PUSH2 0x4DC JUMPI PUSH2 0x4DB PUSH2 0x3F4 JUMP JUMPDEST JUMPDEST PUSH2 0x4E7 DUP5 DUP3 DUP6 PUSH2 0x4A0 JUMP JUMPDEST POP SWAP4 SWAP3 POP POP POP JUMP JUMPDEST PUSH0 DUP3 PUSH1 0x1F DUP4 ADD SLT PUSH2 0x503 JUMPI PUSH2 0x502 PUSH2 0x3F0 JUMP JUMPDEST JUMPDEST DUP2 CALLDATALOAD PUSH2 0x513 DUP5 DUP3 PUSH1 0x20 DUP7 ADD PUSH2 0x4AE JUMP JUMPDEST SWAP2 POP POP SWAP3 SWAP2 POP POP JUMP JUMPDEST PUSH0 PUSH1 0x20 DUP3 DUP5 SUB SLT ISZERO PUSH2 0x531 JUMPI PUSH2 0x530 PUSH2 0x2C4 JUMP JUMPDEST JUMPDEST PUSH0 DUP3 ADD CALLDATALOAD PUSH8 0xFFFFFFFFFFFFFFFF DUP2 GT ISZERO PUSH2 0x54E JUMPI PUSH2 0x54D PUSH2 0x2C8 JUMP JUMPDEST JUMPDEST PUSH2 0x55A DUP5 DUP3 DUP6 ADD PUSH2 0x4EF JUMP JUMPDEST SWAP2 POP POP SWAP3 SWAP2 POP POP JUMP JUMPDEST PUSH0 DUP1 PUSH1 0x40 DUP4 DUP6 SUB SLT ISZERO PUSH2 0x579 JUMPI PUSH2 0x578 PUSH2 0x2C4 JUMP JUMPDEST JUMPDEST PUSH0 DUP4 ADD CALLDATALOAD PUSH8 0xFFFFFFFFFFFFFFFF DUP2 GT ISZERO PUSH2 0x596 JUMPI PUSH2 0x595 PUSH2 0x2C8 JUMP JUMPDEST JUMPDEST PUSH2 0x5A2 DUP6 DUP3 DUP7 ADD PUSH2 0x4EF JUMP JUMPDEST SWAP3 POP POP PUSH1 0x20 PUSH2 0x5B3 DUP6 DUP3 DUP7 ADD PUSH2 0x2EB JUMP JUMPDEST SWAP2 POP POP SWAP3 POP SWAP3 SWAP1 POP JUMP JUMPDEST PUSH32 0x4E487B7100000000000000000000000000000000000000000000000000000000 PUSH0 MSTORE PUSH1 0x22 PUSH1 0x4 MSTORE PUSH1 0x24 PUSH0 REVERT JUMPDEST PUSH0 PUSH1 0x2 DUP3 DIV SWAP1 POP PUSH1 0x1 DUP3 AND DUP1 PUSH2 0x601 JUMPI PUSH1 0x7F DUP3 AND SWAP2 POP JUMPDEST PUSH1 0x20 DUP3 LT DUP2 SUB PUSH2 0x614 JUMPI PUSH2 0x613 PUSH2 0x5BD JUMP JUMPDEST JUMPDEST POP SWAP2 SWAP1 POP JUMP JUMPDEST PUSH32 0x4E487B7100000000000000000000000000000000000000000000000000000000 PUSH0 MSTORE PUSH1 0x11 PUSH1 0x4 MSTORE PUSH1 0x24 PUSH0 REVERT JUMPDEST PUSH0 PUSH2 0x651 DUP3 PUSH2 0x2CC JUMP JUMPDEST SWAP2 POP PUSH2 0x65C DUP4 PUSH2 0x2CC JUMP JUMPDEST SWAP3 POP DUP3 DUP3 ADD SWAP1 POP DUP1 DUP3 GT ISZERO PUSH2 0x674 JUMPI PUSH2 0x673 PUSH2 0x61A JUMP JUMPDEST JUMPDEST SWAP3 SWAP2 POP POP JUMP JUMPDEST PUSH0 DUP2 SWAP1 POP SWAP3 SWAP2 POP POP JUMP JUMPDEST PUSH0 PUSH2 0x68E DUP3 PUSH2 0x32A JUMP JUMPDEST PUSH2 0x698 DUP2 DUP6 PUSH2 0x67A JUMP JUMPDEST SWAP4 POP PUSH2 0x6A8 DUP2 DUP6 PUSH1 0x20 DUP7 ADD PUSH2 0x344 JUMP JUMPDEST DUP1 DUP5 ADD SWAP2 POP POP SWAP3 SWAP2 POP POP JUMP JUMPDEST PUSH0 PUSH2 0x6BF DUP3 DUP5 PUSH2 0x684 JUMP JUMPDEST SWAP2 POP DUP2 SWAP1 POP SWAP3 SWAP2 POP POP JUMP JUMPDEST PUSH0 DUP2 SWAP1 POP DUP2 PUSH0 MSTORE PUSH1 0x20 PUSH0 KECCAK256 SWAP1 POP SWAP2 SWAP1 POP JUMP JUMPDEST PUSH0 PUSH1 0x20 PUSH1 0x1F DUP4 ADD DIV SWAP1 POP SWAP2 SWAP1 POP JUMP JUMPDEST PUSH0 DUP3 DUP3 SHL SWAP1 POP SWAP3 SWAP2 POP POP JUMP JUMPDEST PUSH0 PUSH1 0x8 DUP4 MUL PUSH2 0x726 PUSH32 0xFFFFFFFFFFFFFFFFFFFFFFFFFFFFFFFFFFFFFFFFFFFFFFFFFFFFFFFFFFFFFFFF DUP3 PUSH2 0x6EB JUMP JUMPDEST PUSH2 0x730 DUP7 DUP4 PUSH2 0x6EB JUMP JUMPDEST SWAP6 POP DUP1 NOT DUP5 AND SWAP4 POP DUP1 DUP7 AND DUP5 OR SWAP3 POP POP POP SWAP4 SWAP3 POP POP POP JUMP JUMPDEST PUSH0 DUP2 SWAP1 POP SWAP2 SWAP1 POP JUMP JUMPDEST PUSH0 PUSH2 0x76B PUSH2 0x766 PUSH2 0x761 DUP5 PUSH2 0x2CC JUMP JUMPDEST PUSH2 0x748 JUMP JUMPDEST PUSH2 0x2CC JUMP JUMPDEST SWAP1 POP SWAP2 SWAP1 POP JUMP JUMPDEST PUSH0 DUP2 SWAP1 POP SWAP2 SWAP1 POP JUMP JUMPDEST PUSH2 0x784 DUP4 PUSH2 0x751 JUMP JUMPDEST PUSH2 0x798 PUSH2 0x790 DUP3 PUSH2 0x772 JUMP JUMPDEST DUP5 DUP5 SLOAD PUSH2 0x6F7 JUMP JUMPDEST DUP3 SSTORE POP POP POP POP JUMP JUMPDEST PUSH0 SWAP1 JUMP JUMPDEST PUSH2 0x7AC PUSH2 0x7A0 JUMP JUMPDEST PUSH2 0x7B7 DUP2 DUP5 DUP5 PUSH2 0x77B JUMP JUMPDEST POP POP POP JUMP JUMPDEST JUMPDEST DUP2 DUP2 LT ISZERO PUSH2 0x7DA JUMPI PUSH2 0x7CF PUSH0 DUP3 PUSH2 0x7A4 JUMP JUMPDEST PUSH1 0x1 DUP2 ADD SWAP1 POP PUSH2 0x7BD JUMP JUMPDEST POP POP JUMP JUMPDEST PUSH1 0x1F DUP3 GT ISZERO PUSH2 0x81F JUMPI PUSH2 0x7F0 DUP2 PUSH2 0x6CA JUMP JUMPDEST PUSH2 0x7F9 DUP5 PUSH2 0x6DC JUMP JUMPDEST DUP2 ADD PUSH1 0x20 DUP6 LT ISZERO PUSH2 0x808 JUMPI DUP2 SWAP1 POP JUMPDEST PUSH2 0x81C PUSH2 0x814 DUP6 PUSH2 0x6DC JUMP JUMPDEST DUP4 ADD DUP3 PUSH2 0x7BC JUMP JUMPDEST POP POP JUMPDEST POP POP POP JUMP JUMPDEST PUSH0 DUP3 DUP3 SHR SWAP1 POP SWAP3 SWAP2 POP POP JUMP JUMPDEST PUSH0 PUSH2 0x83F PUSH0 NOT DUP5 PUSH1 0x8 MUL PUSH2 0x824 JUMP JUMPDEST NOT DUP1 DUP4 AND SWAP2 POP POP SWAP3 SWAP2 POP POP JUMP JUMPDEST PUSH0 PUSH2 0x857 DUP4 DUP4 PUSH2 0x830 JUMP JUMPDEST SWAP2 POP DUP3 PUSH1 0x2 MUL DUP3 OR SWAP1 POP SWAP3 SWAP2 POP POP JUMP JUMPDEST PUSH2 0x870 DUP3 PUSH2 0x32A JUMP JUMPDEST PUSH8 0xFFFFFFFFFFFFFFFF DUP2 GT ISZERO PUSH2 0x889 JUMPI PUSH2 0x888 PUSH2 0x3F8 JUMP JUMPDEST JUMPDEST PUSH2 0x893 DUP3 SLOAD PUSH2 0x5EA JUMP JUMPDEST PUSH2 0x89E DUP3 DUP3 DUP6 PUSH2 0x7DE JUMP JUMPDEST PUSH0 PUSH1 0x20 SWAP1 POP PUSH1 0x1F DUP4 GT PUSH1 0x1 DUP2 EQ PUSH2 0x8CF JUMPI PUSH0 DUP5 ISZERO PUSH2 0x8BD JUMPI DUP3 DUP8 ADD MLOAD SWAP1 POP JUMPDEST PUSH2 0x8C7 DUP6 DUP3 PUSH2 0x84C JUMP JUMPDEST DUP7 SSTORE POP PUSH2 0x92E JUMP JUMPDEST PUSH1 0x1F NOT DUP5 AND PUSH2 0x8DD DUP7 PUSH2 0x6CA JUMP JUMPDEST PUSH0 JUMPDEST DUP3 DUP2 LT ISZERO PUSH2 0x904 JUMPI DUP5 DUP10 ADD MLOAD DUP3 SSTORE PUSH1 0x1 DUP3 ADD SWAP2 POP PUSH1 0x20 DUP6 ADD SWAP5 POP PUSH1 0x20 DUP2 ADD SWAP1 POP PUSH2 0x8DF JUMP JUMPDEST DUP7 DUP4 LT ISZERO PUSH2 0x921 JUMPI DUP5 DUP10 ADD MLOAD PUSH2 0x91D PUSH1 0x1F DUP10 AND DUP3 PUSH2 0x830 JUMP JUMPDEST DUP4 SSTORE POP JUMPDEST PUSH1 0x1 PUSH1 0x2 DUP9 MUL ADD DUP9 SSTORE POP POP POP JUMPDEST POP POP POP POP POP POP JUMP INVALID LOG2 PUSH5 0x6970667358 0x22 SLT KECCAK256 0xF CALLCODE DUP3 0x2B PUSH2 0x3DCD 0xF8 DUP9 0xD0 0x2C 0xDE DUP8 0x4E PUSH22 0x324E05CCADDF41E4FC96E1CC5F22D1A7EB64736F6C63 NUMBER STOP ADDMOD BYTE STOP CALLER "
				},
				"gasEstimates": {
					"creation": {
						"codeDepositCost": "482400",
						"executionCost": "516",
						"totalCost": "482916"
					},
					"external": {
						"addPerson(string,uint256)": "infinite",
						"favoriateNumber()": "2512",
						"getFavoriateNumber(string)": "infinite",
						"listOfPeoples(uint256)": "infinite",
						"retrieve()": "2432",
						"store(uint256)": "infinite"
					}
				},
				"methodIdentifiers": {
					"addPerson(string,uint256)": "6f760f41",
					"favoriateNumber()": "b8b1d7af",
					"getFavoriateNumber(string)": "69934e47",
					"listOfPeoples(uint256)": "26fd5ebe",
					"retrieve()": "2e64cec1",
					"store(uint256)": "6057361d"
				}
			},
			"storageLayout": {
				"storage": [
					{
						"astId": 3,
						"contract": "chp_2/AddFiveStorage.sol:AddFiveStorage",
						"label": "favoriateNumber",
						"offset": 0,
						"slot": "0",
						"type": "t_uint256"
					},
					{
						"astId": 30,
						"contract": "chp_2/AddFiveStorage.sol:AddFiveStorage",
						"label": "listOfPeoples",
						"offset": 0,
						"slot": "1",
						"type": "t_array(t_struct(Person)26_storage)dyn_storage"
					},
					{
						"astId": 34,
						"contract": "chp_2/AddFiveStorage.sol:AddFiveStorage",
						"label": "personToNumber",
						"offset": 0,
						"slot": "2",
						"type": "t_mapping(t_string_memory_ptr,t_uint256)"
					}
				],
				"types": {
					"t_array(t_struct(Person)26_storage)dyn_storage": {
						"base": "t_struct(Person)26_storage",
						"encoding": "dynamic_array",
						"label": "struct SimpleStorage.Person[]",
						"numberOfBytes": "32"
					},
					"t_mapping(t_string_memory_ptr,t_uint256)": {
						"encoding": "mapping",
						"key": "t_string_memory_ptr",
						"label": "mapping(string => uint256)",
						"numberOfBytes": "32",
						"value": "t_uint256"
					},
					"t_string_memory_ptr": {
						"encoding": "bytes",
						"label": "string",
						"numberOfBytes": "32"
					},
					"t_string_storage": {
						"encoding": "bytes",
						"label": "string",
						"numberOfBytes": "32"
					},
					"t_struct(Person)26_storage": {
						"encoding": "inplace",
						"label": "struct SimpleStorage.Person",
						"members": [
							{
								"astId": 23,
								"contract": "chp_2/AddFiveStorage.sol:AddFiveStorage",
								"label": "name",
								"offset": 0,
								"slot": "0",
								"type": "t_string_storage"
							},
							{
								"astId": 25,
								"contract": "chp_2/AddFiveStorage.sol:AddFiveStorage",
								"label": "number",
								"offset": 0,
								"slot": "1",
								"type": "t_uint256"
							}
						],
						"numberOfBytes": "64"
					},
					"t_uint256": {
						"encoding": "inplace",
						"label": "uint256",
						"numberOfBytes": "32"
					}
				}
			},
			"userdoc": {
				"kind": "user",
				"methods": {},
				"version": 1
			}
		}
	}
}