{
	"chp_2/FundMe.sol": {
		"FundMe": {
			"abi": [
				{
					"inputs": [],
					"stateMutability": "nonpayable",
					"type": "constructor"
				},
				{
					"inputs": [],
					"name": "NotOwner",
					"type": "error"
				},
				{
					"stateMutability": "payable",
					"type": "fallback"
				},
				{
					"inputs": [],
					"name": "MINIMUM_USD",
					"outputs": [
						{
							"internalType": "uint256",
							"name": "",
							"type": "uint256"
						}
					],
					"stateMutability": "view",
					"type": "function"
				},
				{
					"inputs": [
						{
							"internalType": "address",
							"name": "",
							"type": "address"
						}
					],
					"name": "addressToAmountFunded",
					"outputs": [
						{
							"internalType": "uint256",
							"name": "amountFunded",
							"type": "uint256"
						}
					],
					"stateMutability": "view",
					"type": "function"
				},
				{
					"inputs": [],
					"name": "fund",
					"outputs": [],
					"stateMutability": "payable",
					"type": "function"
				},
				{
					"inputs": [
						{
							"internalType": "uint256",
							"name": "",
							"type": "uint256"
						}
					],
					"name": "funders",
					"outputs": [
						{
							"internalType": "address",
							"name": "",
							"type": "address"
						}
					],
					"stateMutability": "view",
					"type": "function"
				},
				{
					"inputs": [],
					"name": "i_owner",
					"outputs": [
						{
							"internalType": "address",
							"name": "",
							"type": "address"
						}
					],
					"stateMutability": "view",
					"type": "function"
				},
				{
					"inputs": [],
					"name": "withdraw",
					"outputs": [],
					"stateMutability": "nonpayable",
					"type": "function"
				},
				{
					"stateMutability": "payable",
					"type": "receive"
				}
			],
			"devdoc": {
				"kind": "dev",
				"methods": {},
				"version": 1
			},
			"evm": {
				"assembly": "    /* \"chp_2/FundMe.sol\":1172:2725  contract FundMe {... */\n  mstore(0x40, 0xa0)\n    /* \"chp_2/FundMe.sol\":1674:1727  constructor() {... */\n  callvalue\n  dup1\n  iszero\n  tag_1\n  jumpi\n  0x00\n  dup1\n  revert\ntag_1:\n  pop\n    /* \"chp_2/FundMe.sol\":1709:1719  msg.sender */\n  caller\n    /* \"chp_2/FundMe.sol\":1699:1719  i_owner = msg.sender */\n  0xffffffffffffffffffffffffffffffffffffffff\n  and\n  0x80\n  dup2\n  0xffffffffffffffffffffffffffffffffffffffff\n  and\n  dup2\n  mstore\n  pop\n  pop\n    /* \"chp_2/FundMe.sol\":1172:2725  contract FundMe {... */\n  mload(0x80)\n  codecopy(0x00, dataOffset(sub_0), dataSize(sub_0))\n  0x00\n  assignImmutable(\"0x0697183ae8eedd43b56f90cfa450ea6e3ac27fb69f1056ee33ccc5a9587bcd2a\")\n  return(0x00, dataSize(sub_0))\nstop\n\nsub_0: assembly {\n        /* \"chp_2/FundMe.sol\":1172:2725  contract FundMe {... */\n      mstore(0x40, 0x80)\n      jumpi(tag_1, lt(calldatasize, 0x04))\n      shr(0xe0, calldataload(0x00))\n      dup1\n      0x3ccfd60b\n      eq\n      tag_3\n      jumpi\n      dup1\n      0x3e47d6f3\n      eq\n      tag_4\n      jumpi\n      dup1\n      0x6b69a592\n      eq\n      tag_5\n      jumpi\n      dup1\n      0xb60d4288\n      eq\n      tag_6\n      jumpi\n      dup1\n      0xdba6335f\n      eq\n      tag_7\n      jumpi\n      dup1\n      0xdc0d3dff\n      eq\n      tag_8\n      jumpi\n      jump(tag_2)\n    tag_1:\n      jumpi(tag_2, calldatasize)\n        /* \"chp_2/FundMe.sol\":2624:2630  fund() */\n      tag_11\n        /* \"chp_2/FundMe.sol\":2624:2628  fund */\n      tag_12\n        /* \"chp_2/FundMe.sol\":2624:2630  fund() */\n      jump\t// in\n    tag_11:\n        /* \"chp_2/FundMe.sol\":1172:2725  contract FundMe {... */\n      stop\n    tag_2:\n        /* \"chp_2/FundMe.sol\":2685:2691  fund() */\n      tag_15\n        /* \"chp_2/FundMe.sol\":2685:2689  fund */\n      tag_12\n        /* \"chp_2/FundMe.sol\":2685:2691  fund() */\n      jump\t// in\n    tag_15:\n        /* \"chp_2/FundMe.sol\":1172:2725  contract FundMe {... */\n      stop\n        /* \"chp_2/FundMe.sol\":1735:2378  function withdraw() public onlyOwner {... */\n    tag_3:\n      callvalue\n      dup1\n      iszero\n      tag_16\n      jumpi\n      0x00\n      dup1\n      revert\n    tag_16:\n      pop\n      tag_17\n      tag_18\n      jump\t// in\n    tag_17:\n      stop\n        /* \"chp_2/FundMe.sol\":1324:1393  mapping(address => uint256 amountFunded) public addressToAmountFunded */\n    tag_4:\n      callvalue\n      dup1\n      iszero\n      tag_19\n      jumpi\n      0x00\n      dup1\n      revert\n    tag_19:\n      pop\n      tag_20\n      0x04\n      dup1\n      calldatasize\n      sub\n      dup2\n      add\n      swap1\n      tag_21\n      swap2\n      swap1\n      tag_22\n      jump\t// in\n    tag_21:\n      tag_23\n      jump\t// in\n    tag_20:\n      mload(0x40)\n      tag_24\n      swap2\n      swap1\n      tag_25\n      jump\t// in\n    tag_24:\n      mload(0x40)\n      dup1\n      swap2\n      sub\n      swap1\n      return\n        /* \"chp_2/FundMe.sol\":1238:1284  uint256 public constant MINIMUM_USD = 50 *1e18 */\n    tag_5:\n      callvalue\n      dup1\n      iszero\n      tag_26\n      jumpi\n      0x00\n      dup1\n      revert\n    tag_26:\n      pop\n      tag_27\n      tag_28\n      jump\t// in\n    tag_27:\n      mload(0x40)\n      tag_29\n      swap2\n      swap1\n      tag_25\n      jump\t// in\n    tag_29:\n      mload(0x40)\n      dup1\n      swap2\n      sub\n      swap1\n      return\n        /* \"chp_2/FundMe.sol\":1402:1625  function fund() public payable {... */\n    tag_6:\n      tag_30\n      tag_12\n      jump\t// in\n    tag_30:\n      stop\n        /* \"chp_2/FundMe.sol\":1633:1665  address public immutable i_owner */\n    tag_7:\n      callvalue\n      dup1\n      iszero\n      tag_31\n      jumpi\n      0x00\n      dup1\n      revert\n    tag_31:\n      pop\n      tag_32\n      tag_33\n      jump\t// in\n    tag_32:\n      mload(0x40)\n      tag_34\n      swap2\n      swap1\n      tag_35\n      jump\t// in\n    tag_34:\n      mload(0x40)\n      dup1\n      swap2\n      sub\n      swap1\n      return\n        /* \"chp_2/FundMe.sol\":1293:1317  address[] public funders */\n    tag_8:\n      callvalue\n      dup1\n      iszero\n      tag_36\n      jumpi\n      0x00\n      dup1\n      revert\n    tag_36:\n      pop\n      tag_37\n      0x04\n      dup1\n      calldatasize\n      sub\n      dup2\n      add\n      swap1\n      tag_38\n      swap2\n      swap1\n      tag_39\n      jump\t// in\n    tag_38:\n      tag_40\n      jump\t// in\n    tag_37:\n      mload(0x40)\n      tag_41\n      swap2\n      swap1\n      tag_35\n      jump\t// in\n    tag_41:\n      mload(0x40)\n      dup1\n      swap2\n      sub\n      swap1\n      return\n        /* \"chp_2/FundMe.sol\":1402:1625  function fund() public payable {... */\n    tag_12:\n        /* \"chp_2/FundMe.sol\":1276:1284  50 *1e18 */\n      0x02b5e3af16b1880000\n        /* \"chp_2/FundMe.sol\":1452:1461  msg.value */\n      callvalue\n        /* \"chp_2/FundMe.sol\":1452:1479  msg.value.getConversionRate */\n      linkerSymbol(\"90c210becef823f7d6f774b0422d3b787c8d3b9fd4e749a6f6239b2e19cfb0c7\")\n      0x6e5b6b28\n      swap1\n      swap2\n        /* \"chp_2/FundMe.sol\":1452:1481  msg.value.getConversionRate() */\n      mload(0x40)\n      dup3\n      0xffffffff\n      and\n      0xe0\n      shl\n      dup2\n      mstore\n      0x04\n      add\n      tag_43\n      swap2\n      swap1\n      tag_44\n      jump\t// in\n    tag_43:\n      0x20\n      mload(0x40)\n      dup1\n      dup4\n      sub\n      dup2\n      dup7\n      gas\n      delegatecall\n      iszero\n      dup1\n      iszero\n      tag_46\n      jumpi\n      returndatasize\n      0x00\n      dup1\n      returndatacopy\n      revert(0x00, returndatasize)\n    tag_46:\n      pop\n      pop\n      pop\n      pop\n      mload(0x40)\n      returndatasize\n      not(0x1f)\n      0x1f\n      dup3\n      add\n      and\n      dup3\n      add\n      dup1\n      0x40\n      mstore\n      pop\n      dup2\n      add\n      swap1\n      tag_47\n      swap2\n      swap1\n      tag_48\n      jump\t// in\n    tag_47:\n        /* \"chp_2/FundMe.sol\":1452:1496  msg.value.getConversionRate() >= MINIMUM_USD */\n      lt\n      iszero\n        /* \"chp_2/FundMe.sol\":1444:1523  require(msg.value.getConversionRate() >= MINIMUM_USD, \"didn't send enough ETH\") */\n      tag_49\n      jumpi\n      mload(0x40)\n      0x08c379a000000000000000000000000000000000000000000000000000000000\n      dup2\n      mstore\n      0x04\n      add\n      tag_50\n      swap1\n      tag_51\n      jump\t// in\n    tag_50:\n      mload(0x40)\n      dup1\n      swap2\n      sub\n      swap1\n      revert\n    tag_49:\n        /* \"chp_2/FundMe.sol\":1534:1541  funders */\n      0x00\n        /* \"chp_2/FundMe.sol\":1547:1557  msg.sender */\n      caller\n        /* \"chp_2/FundMe.sol\":1534:1558  funders.push(msg.sender) */\n      swap1\n      dup1\n      0x01\n      dup2\n      sload\n      add\n      dup1\n      dup3\n      sstore\n      dup1\n      swap2\n      pop\n      pop\n      0x01\n      swap1\n      sub\n      swap1\n      0x00\n      mstore\n      keccak256(0x00, 0x20)\n      add\n      0x00\n      swap1\n      swap2\n      swap1\n      swap2\n      swap1\n      swap2\n      0x0100\n      exp\n      dup2\n      sload\n      dup2\n      0xffffffffffffffffffffffffffffffffffffffff\n      mul\n      not\n      and\n      swap1\n      dup4\n      0xffffffffffffffffffffffffffffffffffffffff\n      and\n      mul\n      or\n      swap1\n      sstore\n      pop\n        /* \"chp_2/FundMe.sol\":1606:1615  msg.value */\n      callvalue\n        /* \"chp_2/FundMe.sol\":1569:1590  addressToAmountFunded */\n      0x01\n        /* \"chp_2/FundMe.sol\":1569:1602  addressToAmountFunded[msg.sender] */\n      0x00\n        /* \"chp_2/FundMe.sol\":1591:1601  msg.sender */\n      caller\n        /* \"chp_2/FundMe.sol\":1569:1602  addressToAmountFunded[msg.sender] */\n      0xffffffffffffffffffffffffffffffffffffffff\n      and\n      0xffffffffffffffffffffffffffffffffffffffff\n      and\n      dup2\n      mstore\n      0x20\n      add\n      swap1\n      dup2\n      mstore\n      0x20\n      add\n      0x00\n      keccak256\n      0x00\n        /* \"chp_2/FundMe.sol\":1569:1615  addressToAmountFunded[msg.sender] += msg.value */\n      dup3\n      dup3\n      sload\n      tag_53\n      swap2\n      swap1\n      tag_54\n      jump\t// in\n    tag_53:\n      swap3\n      pop\n      pop\n      dup2\n      swap1\n      sstore\n      pop\n        /* \"chp_2/FundMe.sol\":1402:1625  function fund() public payable {... */\n      jump\t// out\n        /* \"chp_2/FundMe.sol\":1735:2378  function withdraw() public onlyOwner {... */\n    tag_18:\n        /* \"chp_2/FundMe.sol\":2436:2443  i_owner */\n      immutable(\"0x0697183ae8eedd43b56f90cfa450ea6e3ac27fb69f1056ee33ccc5a9587bcd2a\")\n        /* \"chp_2/FundMe.sol\":2422:2443  msg.sender != i_owner */\n      0xffffffffffffffffffffffffffffffffffffffff\n      and\n        /* \"chp_2/FundMe.sol\":2422:2432  msg.sender */\n      caller\n        /* \"chp_2/FundMe.sol\":2422:2443  msg.sender != i_owner */\n      0xffffffffffffffffffffffffffffffffffffffff\n      and\n      eq\n        /* \"chp_2/FundMe.sol\":2418:2467  if (msg.sender != i_owner) { revert NotOwner(); } */\n      tag_56\n      jumpi\n        /* \"chp_2/FundMe.sol\":2454:2464  NotOwner() */\n      mload(0x40)\n      0x30cd747100000000000000000000000000000000000000000000000000000000\n      dup2\n      mstore\n      0x04\n      add\n      mload(0x40)\n      dup1\n      swap2\n      sub\n      swap1\n      revert\n        /* \"chp_2/FundMe.sol\":2418:2467  if (msg.sender != i_owner) { revert NotOwner(); } */\n    tag_56:\n        /* \"chp_2/FundMe.sol\":1789:1808  uint256 funderIndex */\n      0x00\n        /* \"chp_2/FundMe.sol\":1785:1971  for(uint256 funderIndex = 0; funderIndex < funders.length; funderIndex++) {... */\n    tag_58:\n        /* \"chp_2/FundMe.sol\":1828:1835  funders */\n      0x00\n        /* \"chp_2/FundMe.sol\":1828:1842  funders.length */\n      dup1\n      sload\n      swap1\n      pop\n        /* \"chp_2/FundMe.sol\":1814:1825  funderIndex */\n      dup2\n        /* \"chp_2/FundMe.sol\":1814:1842  funderIndex < funders.length */\n      lt\n        /* \"chp_2/FundMe.sol\":1785:1971  for(uint256 funderIndex = 0; funderIndex < funders.length; funderIndex++) {... */\n      iszero\n      tag_59\n      jumpi\n        /* \"chp_2/FundMe.sol\":1874:1888  address funder */\n      0x00\n        /* \"chp_2/FundMe.sol\":1891:1898  funders */\n      dup1\n        /* \"chp_2/FundMe.sol\":1899:1910  funderIndex */\n      dup3\n        /* \"chp_2/FundMe.sol\":1891:1911  funders[funderIndex] */\n      dup2\n      sload\n      dup2\n      lt\n      tag_61\n      jumpi\n      tag_62\n      tag_63\n      jump\t// in\n    tag_62:\n    tag_61:\n      swap1\n      0x00\n      mstore\n      keccak256(0x00, 0x20)\n      add\n      0x00\n      swap1\n      sload\n      swap1\n      0x0100\n      exp\n      swap1\n      div\n      0xffffffffffffffffffffffffffffffffffffffff\n      and\n        /* \"chp_2/FundMe.sol\":1874:1911  address funder = funders[funderIndex] */\n      swap1\n      pop\n        /* \"chp_2/FundMe.sol\":1958:1959  0 */\n      0x00\n        /* \"chp_2/FundMe.sol\":1926:1947  addressToAmountFunded */\n      0x01\n        /* \"chp_2/FundMe.sol\":1926:1955  addressToAmountFunded[funder] */\n      0x00\n        /* \"chp_2/FundMe.sol\":1948:1954  funder */\n      dup4\n        /* \"chp_2/FundMe.sol\":1926:1955  addressToAmountFunded[funder] */\n      0xffffffffffffffffffffffffffffffffffffffff\n      and\n      0xffffffffffffffffffffffffffffffffffffffff\n      and\n      dup2\n      mstore\n      0x20\n      add\n      swap1\n      dup2\n      mstore\n      0x20\n      add\n      0x00\n      keccak256\n        /* \"chp_2/FundMe.sol\":1926:1959  addressToAmountFunded[funder] = 0 */\n      dup2\n      swap1\n      sstore\n      pop\n        /* \"chp_2/FundMe.sol\":1859:1971  {... */\n      pop\n        /* \"chp_2/FundMe.sol\":1844:1857  funderIndex++ */\n      dup1\n      dup1\n      tag_65\n      swap1\n      tag_66\n      jump\t// in\n    tag_65:\n      swap2\n      pop\n      pop\n        /* \"chp_2/FundMe.sol\":1785:1971  for(uint256 funderIndex = 0; funderIndex < funders.length; funderIndex++) {... */\n      jump(tag_58)\n    tag_59:\n      pop\n        /* \"chp_2/FundMe.sol\":2005:2006  0 */\n      0x00\n        /* \"chp_2/FundMe.sol\":1991:2007  new address[](0) */\n      0xffffffffffffffff\n      dup2\n      gt\n      iszero\n      tag_67\n      jumpi\n      tag_68\n      tag_69\n      jump\t// in\n    tag_68:\n    tag_67:\n      mload(0x40)\n      swap1\n      dup1\n      dup3\n      mstore\n      dup1\n      0x20\n      mul\n      0x20\n      add\n      dup3\n      add\n      0x40\n      mstore\n      dup1\n      iszero\n      tag_70\n      jumpi\n      dup2\n      0x20\n      add\n      0x20\n      dup3\n      mul\n      dup1\n      calldatasize\n      dup4\n      calldatacopy\n      dup1\n      dup3\n      add\n      swap2\n      pop\n      pop\n      swap1\n      pop\n    tag_70:\n      pop\n        /* \"chp_2/FundMe.sol\":1981:1988  funders */\n      0x00\n        /* \"chp_2/FundMe.sol\":1981:2007  funders = new address[](0) */\n      swap1\n      dup1\n      mload\n      swap1\n      0x20\n      add\n      swap1\n      tag_71\n      swap3\n      swap2\n      swap1\n      tag_72\n      jump\t// in\n    tag_71:\n      pop\n        /* \"chp_2/FundMe.sol\":2049:2059  msg.sender */\n      caller\n        /* \"chp_2/FundMe.sol\":2041:2069  payable(msg.sender).transfer */\n      0xffffffffffffffffffffffffffffffffffffffff\n      and\n        /* \"chp_2/FundMe.sol\":2041:2092  payable(msg.sender).transfer(address(this).balance) */\n      0x08fc\n        /* \"chp_2/FundMe.sol\":2070:2091  address(this).balance */\n      selfbalance\n        /* \"chp_2/FundMe.sol\":2041:2092  payable(msg.sender).transfer(address(this).balance) */\n      swap1\n      dup2\n      iszero\n      mul\n      swap1\n      mload(0x40)\n      0x00\n      mload(0x40)\n      dup1\n      dup4\n      sub\n      dup2\n      dup6\n      dup9\n      dup9\n      call\n      swap4\n      pop\n      pop\n      pop\n      pop\n      iszero\n      dup1\n      iszero\n      tag_74\n      jumpi\n      returndatasize\n      0x00\n      dup1\n      returndatacopy\n      revert(0x00, returndatasize)\n    tag_74:\n      pop\n        /* \"chp_2/FundMe.sol\":2103:2119  bool sendSuccess */\n      0x00\n        /* \"chp_2/FundMe.sol\":2130:2140  msg.sender */\n      caller\n        /* \"chp_2/FundMe.sol\":2122:2146  payable(msg.sender).send */\n      0xffffffffffffffffffffffffffffffffffffffff\n      and\n        /* \"chp_2/FundMe.sol\":2122:2169  payable(msg.sender).send(address(this).balance) */\n      0x08fc\n        /* \"chp_2/FundMe.sol\":2147:2168  address(this).balance */\n      selfbalance\n        /* \"chp_2/FundMe.sol\":2122:2169  payable(msg.sender).send(address(this).balance) */\n      swap1\n      dup2\n      iszero\n      mul\n      swap1\n      mload(0x40)\n      0x00\n      mload(0x40)\n      dup1\n      dup4\n      sub\n      dup2\n      dup6\n      dup9\n      dup9\n      call\n      swap4\n      pop\n      pop\n      pop\n      pop\n        /* \"chp_2/FundMe.sol\":2103:2169  bool sendSuccess = payable(msg.sender).send(address(this).balance) */\n      swap1\n      pop\n        /* \"chp_2/FundMe.sol\":2188:2199  sendSuccess */\n      dup1\n        /* \"chp_2/FundMe.sol\":2180:2215  require(sendSuccess, \"send failed\") */\n      tag_76\n      jumpi\n      mload(0x40)\n      0x08c379a000000000000000000000000000000000000000000000000000000000\n      dup2\n      mstore\n      0x04\n      add\n      tag_77\n      swap1\n      tag_78\n      jump\t// in\n    tag_77:\n      mload(0x40)\n      dup1\n      swap2\n      sub\n      swap1\n      revert\n    tag_76:\n        /* \"chp_2/FundMe.sol\":2244:2260  bool callSuccess */\n      0x00\n        /* \"chp_2/FundMe.sol\":2274:2284  msg.sender */\n      caller\n        /* \"chp_2/FundMe.sol\":2266:2290  payable(msg.sender).call */\n      0xffffffffffffffffffffffffffffffffffffffff\n      and\n        /* \"chp_2/FundMe.sol\":2298:2319  address(this).balance */\n      selfbalance\n        /* \"chp_2/FundMe.sol\":2266:2324  payable(msg.sender).call{value: address(this).balance}(\"\") */\n      mload(0x40)\n      tag_79\n      swap1\n      tag_80\n      jump\t// in\n    tag_79:\n      0x00\n      mload(0x40)\n      dup1\n      dup4\n      sub\n      dup2\n      dup6\n      dup8\n      gas\n      call\n      swap3\n      pop\n      pop\n      pop\n      returndatasize\n      dup1\n      0x00\n      dup2\n      eq\n      tag_83\n      jumpi\n      mload(0x40)\n      swap2\n      pop\n      and(add(returndatasize, 0x3f), not(0x1f))\n      dup3\n      add\n      0x40\n      mstore\n      returndatasize\n      dup3\n      mstore\n      returndatasize\n      0x00\n      0x20\n      dup5\n      add\n      returndatacopy\n      jump(tag_82)\n    tag_83:\n      0x60\n      swap2\n      pop\n    tag_82:\n      pop\n        /* \"chp_2/FundMe.sol\":2243:2324  (bool callSuccess, ) = payable(msg.sender).call{value: address(this).balance}(\"\") */\n      pop\n      swap1\n      pop\n        /* \"chp_2/FundMe.sol\":2343:2354  callSuccess */\n      dup1\n        /* \"chp_2/FundMe.sol\":2335:2370  require(callSuccess, \"Call failed\") */\n      tag_84\n      jumpi\n      mload(0x40)\n      0x08c379a000000000000000000000000000000000000000000000000000000000\n      dup2\n      mstore\n      0x04\n      add\n      tag_85\n      swap1\n      tag_86\n      jump\t// in\n    tag_85:\n      mload(0x40)\n      dup1\n      swap2\n      sub\n      swap1\n      revert\n    tag_84:\n        /* \"chp_2/FundMe.sol\":1772:2378  {... */\n      pop\n      pop\n        /* \"chp_2/FundMe.sol\":1735:2378  function withdraw() public onlyOwner {... */\n      jump\t// out\n        /* \"chp_2/FundMe.sol\":1324:1393  mapping(address => uint256 amountFunded) public addressToAmountFunded */\n    tag_23:\n      mstore(0x20, 0x01)\n      dup1\n      0x00\n      mstore\n      keccak256(0x00, 0x40)\n      0x00\n      swap2\n      pop\n      swap1\n      pop\n      sload\n      dup2\n      jump\t// out\n        /* \"chp_2/FundMe.sol\":1238:1284  uint256 public constant MINIMUM_USD = 50 *1e18 */\n    tag_28:\n        /* \"chp_2/FundMe.sol\":1276:1284  50 *1e18 */\n      0x02b5e3af16b1880000\n        /* \"chp_2/FundMe.sol\":1238:1284  uint256 public constant MINIMUM_USD = 50 *1e18 */\n      dup2\n      jump\t// out\n        /* \"chp_2/FundMe.sol\":1633:1665  address public immutable i_owner */\n    tag_33:\n      immutable(\"0x0697183ae8eedd43b56f90cfa450ea6e3ac27fb69f1056ee33ccc5a9587bcd2a\")\n      dup2\n      jump\t// out\n        /* \"chp_2/FundMe.sol\":1293:1317  address[] public funders */\n    tag_40:\n      0x00\n      dup2\n      dup2\n      sload\n      dup2\n      lt\n      tag_87\n      jumpi\n      0x00\n      dup1\n      revert\n    tag_87:\n      swap1\n      0x00\n      mstore\n      keccak256(0x00, 0x20)\n      add\n      0x00\n      swap2\n      pop\n      sload\n      swap1\n      0x0100\n      exp\n      swap1\n      div\n      0xffffffffffffffffffffffffffffffffffffffff\n      and\n      dup2\n      jump\t// out\n    tag_72:\n      dup3\n      dup1\n      sload\n      dup3\n      dup3\n      sstore\n      swap1\n      0x00\n      mstore\n      keccak256(0x00, 0x20)\n      swap1\n      dup2\n      add\n      swap3\n      dup3\n      iszero\n      tag_89\n      jumpi\n      swap2\n      0x20\n      mul\n      dup3\n      add\n    tag_90:\n      dup3\n      dup2\n      gt\n      iszero\n      tag_91\n      jumpi\n      dup3\n      mload\n      dup3\n      exp(0x0100, 0x00)\n      dup2\n      sload\n      dup2\n      0xffffffffffffffffffffffffffffffffffffffff\n      mul\n      not\n      and\n      swap1\n      dup4\n      0xffffffffffffffffffffffffffffffffffffffff\n      and\n      mul\n      or\n      swap1\n      sstore\n      pop\n      swap2\n      0x20\n      add\n      swap2\n      swap1\n      0x01\n      add\n      swap1\n      jump(tag_90)\n    tag_91:\n    tag_89:\n      pop\n      swap1\n      pop\n      tag_92\n      swap2\n      swap1\n      tag_93\n      jump\t// in\n    tag_92:\n      pop\n      swap1\n      jump\t// out\n    tag_93:\n    tag_94:\n      dup1\n      dup3\n      gt\n      iszero\n      tag_95\n      jumpi\n      0x00\n      dup2\n      0x00\n      swap1\n      sstore\n      pop\n      0x01\n      add\n      jump(tag_94)\n    tag_95:\n      pop\n      swap1\n      jump\t// out\n        /* \"#utility.yul\":88:205   */\n    tag_97:\n        /* \"#utility.yul\":197:198   */\n      0x00\n        /* \"#utility.yul\":194:195   */\n      dup1\n        /* \"#utility.yul\":187:199   */\n      revert\n        /* \"#utility.yul\":334:460   */\n    tag_99:\n        /* \"#utility.yul\":371:378   */\n      0x00\n        /* \"#utility.yul\":411:453   */\n      0xffffffffffffffffffffffffffffffffffffffff\n        /* \"#utility.yul\":404:409   */\n      dup3\n        /* \"#utility.yul\":400:454   */\n      and\n        /* \"#utility.yul\":389:454   */\n      swap1\n      pop\n        /* \"#utility.yul\":334:460   */\n      swap2\n      swap1\n      pop\n      jump\t// out\n        /* \"#utility.yul\":466:562   */\n    tag_100:\n        /* \"#utility.yul\":503:510   */\n      0x00\n        /* \"#utility.yul\":532:556   */\n      tag_127\n        /* \"#utility.yul\":550:555   */\n      dup3\n        /* \"#utility.yul\":532:556   */\n      tag_99\n      jump\t// in\n    tag_127:\n        /* \"#utility.yul\":521:556   */\n      swap1\n      pop\n        /* \"#utility.yul\":466:562   */\n      swap2\n      swap1\n      pop\n      jump\t// out\n        /* \"#utility.yul\":568:690   */\n    tag_101:\n        /* \"#utility.yul\":641:665   */\n      tag_129\n        /* \"#utility.yul\":659:664   */\n      dup2\n        /* \"#utility.yul\":641:665   */\n      tag_100\n      jump\t// in\n    tag_129:\n        /* \"#utility.yul\":634:639   */\n      dup2\n        /* \"#utility.yul\":631:666   */\n      eq\n        /* \"#utility.yul\":621:684   */\n      tag_130\n      jumpi\n        /* \"#utility.yul\":680:681   */\n      0x00\n        /* \"#utility.yul\":677:678   */\n      dup1\n        /* \"#utility.yul\":670:682   */\n      revert\n        /* \"#utility.yul\":621:684   */\n    tag_130:\n        /* \"#utility.yul\":568:690   */\n      pop\n      jump\t// out\n        /* \"#utility.yul\":696:835   */\n    tag_102:\n        /* \"#utility.yul\":742:747   */\n      0x00\n        /* \"#utility.yul\":780:786   */\n      dup2\n        /* \"#utility.yul\":767:787   */\n      calldataload\n        /* \"#utility.yul\":758:787   */\n      swap1\n      pop\n        /* \"#utility.yul\":796:829   */\n      tag_132\n        /* \"#utility.yul\":823:828   */\n      dup2\n        /* \"#utility.yul\":796:829   */\n      tag_101\n      jump\t// in\n    tag_132:\n        /* \"#utility.yul\":696:835   */\n      swap3\n      swap2\n      pop\n      pop\n      jump\t// out\n        /* \"#utility.yul\":841:1170   */\n    tag_22:\n        /* \"#utility.yul\":900:906   */\n      0x00\n        /* \"#utility.yul\":949:951   */\n      0x20\n        /* \"#utility.yul\":937:946   */\n      dup3\n        /* \"#utility.yul\":928:935   */\n      dup5\n        /* \"#utility.yul\":924:947   */\n      sub\n        /* \"#utility.yul\":920:952   */\n      slt\n        /* \"#utility.yul\":917:1036   */\n      iszero\n      tag_134\n      jumpi\n        /* \"#utility.yul\":955:1034   */\n      tag_135\n      tag_97\n      jump\t// in\n    tag_135:\n        /* \"#utility.yul\":917:1036   */\n    tag_134:\n        /* \"#utility.yul\":1075:1076   */\n      0x00\n        /* \"#utility.yul\":1100:1153   */\n      tag_136\n        /* \"#utility.yul\":1145:1152   */\n      dup5\n        /* \"#utility.yul\":1136:1142   */\n      dup3\n        /* \"#utility.yul\":1125:1134   */\n      dup6\n        /* \"#utility.yul\":1121:1143   */\n      add\n        /* \"#utility.yul\":1100:1153   */\n      tag_102\n      jump\t// in\n    tag_136:\n        /* \"#utility.yul\":1090:1153   */\n      swap2\n      pop\n        /* \"#utility.yul\":1046:1163   */\n      pop\n        /* \"#utility.yul\":841:1170   */\n      swap3\n      swap2\n      pop\n      pop\n      jump\t// out\n        /* \"#utility.yul\":1176:1253   */\n    tag_103:\n        /* \"#utility.yul\":1213:1220   */\n      0x00\n        /* \"#utility.yul\":1242:1247   */\n      dup2\n        /* \"#utility.yul\":1231:1247   */\n      swap1\n      pop\n        /* \"#utility.yul\":1176:1253   */\n      swap2\n      swap1\n      pop\n      jump\t// out\n        /* \"#utility.yul\":1259:1377   */\n    tag_104:\n        /* \"#utility.yul\":1346:1370   */\n      tag_139\n        /* \"#utility.yul\":1364:1369   */\n      dup2\n        /* \"#utility.yul\":1346:1370   */\n      tag_103\n      jump\t// in\n    tag_139:\n        /* \"#utility.yul\":1341:1344   */\n      dup3\n        /* \"#utility.yul\":1334:1371   */\n      mstore\n        /* \"#utility.yul\":1259:1377   */\n      pop\n      pop\n      jump\t// out\n        /* \"#utility.yul\":1383:1605   */\n    tag_25:\n        /* \"#utility.yul\":1476:1480   */\n      0x00\n        /* \"#utility.yul\":1514:1516   */\n      0x20\n        /* \"#utility.yul\":1503:1512   */\n      dup3\n        /* \"#utility.yul\":1499:1517   */\n      add\n        /* \"#utility.yul\":1491:1517   */\n      swap1\n      pop\n        /* \"#utility.yul\":1527:1598   */\n      tag_141\n        /* \"#utility.yul\":1595:1596   */\n      0x00\n        /* \"#utility.yul\":1584:1593   */\n      dup4\n        /* \"#utility.yul\":1580:1597   */\n      add\n        /* \"#utility.yul\":1571:1577   */\n      dup5\n        /* \"#utility.yul\":1527:1598   */\n      tag_104\n      jump\t// in\n    tag_141:\n        /* \"#utility.yul\":1383:1605   */\n      swap3\n      swap2\n      pop\n      pop\n      jump\t// out\n        /* \"#utility.yul\":1611:1729   */\n    tag_105:\n        /* \"#utility.yul\":1698:1722   */\n      tag_143\n        /* \"#utility.yul\":1716:1721   */\n      dup2\n        /* \"#utility.yul\":1698:1722   */\n      tag_100\n      jump\t// in\n    tag_143:\n        /* \"#utility.yul\":1693:1696   */\n      dup3\n        /* \"#utility.yul\":1686:1723   */\n      mstore\n        /* \"#utility.yul\":1611:1729   */\n      pop\n      pop\n      jump\t// out\n        /* \"#utility.yul\":1735:1957   */\n    tag_35:\n        /* \"#utility.yul\":1828:1832   */\n      0x00\n        /* \"#utility.yul\":1866:1868   */\n      0x20\n        /* \"#utility.yul\":1855:1864   */\n      dup3\n        /* \"#utility.yul\":1851:1869   */\n      add\n        /* \"#utility.yul\":1843:1869   */\n      swap1\n      pop\n        /* \"#utility.yul\":1879:1950   */\n      tag_145\n        /* \"#utility.yul\":1947:1948   */\n      0x00\n        /* \"#utility.yul\":1936:1945   */\n      dup4\n        /* \"#utility.yul\":1932:1949   */\n      add\n        /* \"#utility.yul\":1923:1929   */\n      dup5\n        /* \"#utility.yul\":1879:1950   */\n      tag_105\n      jump\t// in\n    tag_145:\n        /* \"#utility.yul\":1735:1957   */\n      swap3\n      swap2\n      pop\n      pop\n      jump\t// out\n        /* \"#utility.yul\":1963:2085   */\n    tag_106:\n        /* \"#utility.yul\":2036:2060   */\n      tag_147\n        /* \"#utility.yul\":2054:2059   */\n      dup2\n        /* \"#utility.yul\":2036:2060   */\n      tag_103\n      jump\t// in\n    tag_147:\n        /* \"#utility.yul\":2029:2034   */\n      dup2\n        /* \"#utility.yul\":2026:2061   */\n      eq\n        /* \"#utility.yul\":2016:2079   */\n      tag_148\n      jumpi\n        /* \"#utility.yul\":2075:2076   */\n      0x00\n        /* \"#utility.yul\":2072:2073   */\n      dup1\n        /* \"#utility.yul\":2065:2077   */\n      revert\n        /* \"#utility.yul\":2016:2079   */\n    tag_148:\n        /* \"#utility.yul\":1963:2085   */\n      pop\n      jump\t// out\n        /* \"#utility.yul\":2091:2230   */\n    tag_107:\n        /* \"#utility.yul\":2137:2142   */\n      0x00\n        /* \"#utility.yul\":2175:2181   */\n      dup2\n        /* \"#utility.yul\":2162:2182   */\n      calldataload\n        /* \"#utility.yul\":2153:2182   */\n      swap1\n      pop\n        /* \"#utility.yul\":2191:2224   */\n      tag_150\n        /* \"#utility.yul\":2218:2223   */\n      dup2\n        /* \"#utility.yul\":2191:2224   */\n      tag_106\n      jump\t// in\n    tag_150:\n        /* \"#utility.yul\":2091:2230   */\n      swap3\n      swap2\n      pop\n      pop\n      jump\t// out\n        /* \"#utility.yul\":2236:2565   */\n    tag_39:\n        /* \"#utility.yul\":2295:2301   */\n      0x00\n        /* \"#utility.yul\":2344:2346   */\n      0x20\n        /* \"#utility.yul\":2332:2341   */\n      dup3\n        /* \"#utility.yul\":2323:2330   */\n      dup5\n        /* \"#utility.yul\":2319:2342   */\n      sub\n        /* \"#utility.yul\":2315:2347   */\n      slt\n        /* \"#utility.yul\":2312:2431   */\n      iszero\n      tag_152\n      jumpi\n        /* \"#utility.yul\":2350:2429   */\n      tag_153\n      tag_97\n      jump\t// in\n    tag_153:\n        /* \"#utility.yul\":2312:2431   */\n    tag_152:\n        /* \"#utility.yul\":2470:2471   */\n      0x00\n        /* \"#utility.yul\":2495:2548   */\n      tag_154\n        /* \"#utility.yul\":2540:2547   */\n      dup5\n        /* \"#utility.yul\":2531:2537   */\n      dup3\n        /* \"#utility.yul\":2520:2529   */\n      dup6\n        /* \"#utility.yul\":2516:2538   */\n      add\n        /* \"#utility.yul\":2495:2548   */\n      tag_107\n      jump\t// in\n    tag_154:\n        /* \"#utility.yul\":2485:2548   */\n      swap2\n      pop\n        /* \"#utility.yul\":2441:2558   */\n      pop\n        /* \"#utility.yul\":2236:2565   */\n      swap3\n      swap2\n      pop\n      pop\n      jump\t// out\n        /* \"#utility.yul\":2571:2697   */\n    tag_108:\n        /* \"#utility.yul\":2666:2690   */\n      tag_156\n        /* \"#utility.yul\":2684:2689   */\n      dup2\n        /* \"#utility.yul\":2666:2690   */\n      tag_103\n      jump\t// in\n    tag_156:\n        /* \"#utility.yul\":2661:2664   */\n      dup3\n        /* \"#utility.yul\":2654:2691   */\n      mstore\n        /* \"#utility.yul\":2571:2697   */\n      pop\n      pop\n      jump\t// out\n        /* \"#utility.yul\":2703:2941   */\n    tag_44:\n        /* \"#utility.yul\":2804:2808   */\n      0x00\n        /* \"#utility.yul\":2842:2844   */\n      0x20\n        /* \"#utility.yul\":2831:2840   */\n      dup3\n        /* \"#utility.yul\":2827:2845   */\n      add\n        /* \"#utility.yul\":2819:2845   */\n      swap1\n      pop\n        /* \"#utility.yul\":2855:2934   */\n      tag_158\n        /* \"#utility.yul\":2931:2932   */\n      0x00\n        /* \"#utility.yul\":2920:2929   */\n      dup4\n        /* \"#utility.yul\":2916:2933   */\n      add\n        /* \"#utility.yul\":2907:2913   */\n      dup5\n        /* \"#utility.yul\":2855:2934   */\n      tag_108\n      jump\t// in\n    tag_158:\n        /* \"#utility.yul\":2703:2941   */\n      swap3\n      swap2\n      pop\n      pop\n      jump\t// out\n        /* \"#utility.yul\":2947:3090   */\n    tag_109:\n        /* \"#utility.yul\":3004:3009   */\n      0x00\n        /* \"#utility.yul\":3035:3041   */\n      dup2\n        /* \"#utility.yul\":3029:3042   */\n      mload\n        /* \"#utility.yul\":3020:3042   */\n      swap1\n      pop\n        /* \"#utility.yul\":3051:3084   */\n      tag_160\n        /* \"#utility.yul\":3078:3083   */\n      dup2\n        /* \"#utility.yul\":3051:3084   */\n      tag_106\n      jump\t// in\n    tag_160:\n        /* \"#utility.yul\":2947:3090   */\n      swap3\n      swap2\n      pop\n      pop\n      jump\t// out\n        /* \"#utility.yul\":3096:3447   */\n    tag_48:\n        /* \"#utility.yul\":3166:3172   */\n      0x00\n        /* \"#utility.yul\":3215:3217   */\n      0x20\n        /* \"#utility.yul\":3203:3212   */\n      dup3\n        /* \"#utility.yul\":3194:3201   */\n      dup5\n        /* \"#utility.yul\":3190:3213   */\n      sub\n        /* \"#utility.yul\":3186:3218   */\n      slt\n        /* \"#utility.yul\":3183:3302   */\n      iszero\n      tag_162\n      jumpi\n        /* \"#utility.yul\":3221:3300   */\n      tag_163\n      tag_97\n      jump\t// in\n    tag_163:\n        /* \"#utility.yul\":3183:3302   */\n    tag_162:\n        /* \"#utility.yul\":3341:3342   */\n      0x00\n        /* \"#utility.yul\":3366:3430   */\n      tag_164\n        /* \"#utility.yul\":3422:3429   */\n      dup5\n        /* \"#utility.yul\":3413:3419   */\n      dup3\n        /* \"#utility.yul\":3402:3411   */\n      dup6\n        /* \"#utility.yul\":3398:3420   */\n      add\n        /* \"#utility.yul\":3366:3430   */\n      tag_109\n      jump\t// in\n    tag_164:\n        /* \"#utility.yul\":3356:3430   */\n      swap2\n      pop\n        /* \"#utility.yul\":3312:3440   */\n      pop\n        /* \"#utility.yul\":3096:3447   */\n      swap3\n      swap2\n      pop\n      pop\n      jump\t// out\n        /* \"#utility.yul\":3453:3622   */\n    tag_110:\n        /* \"#utility.yul\":3537:3548   */\n      0x00\n        /* \"#utility.yul\":3571:3577   */\n      dup3\n        /* \"#utility.yul\":3566:3569   */\n      dup3\n        /* \"#utility.yul\":3559:3578   */\n      mstore\n        /* \"#utility.yul\":3611:3615   */\n      0x20\n        /* \"#utility.yul\":3606:3609   */\n      dup3\n        /* \"#utility.yul\":3602:3616   */\n      add\n        /* \"#utility.yul\":3587:3616   */\n      swap1\n      pop\n        /* \"#utility.yul\":3453:3622   */\n      swap3\n      swap2\n      pop\n      pop\n      jump\t// out\n        /* \"#utility.yul\":3628:3800   */\n    tag_111:\n        /* \"#utility.yul\":3768:3792   */\n      0x6469646e27742073656e6420656e6f7567682045544800000000000000000000\n        /* \"#utility.yul\":3764:3765   */\n      0x00\n        /* \"#utility.yul\":3756:3762   */\n      dup3\n        /* \"#utility.yul\":3752:3766   */\n      add\n        /* \"#utility.yul\":3745:3793   */\n      mstore\n        /* \"#utility.yul\":3628:3800   */\n      pop\n      jump\t// out\n        /* \"#utility.yul\":3806:4172   */\n    tag_112:\n        /* \"#utility.yul\":3948:3951   */\n      0x00\n        /* \"#utility.yul\":3969:4036   */\n      tag_168\n        /* \"#utility.yul\":4033:4035   */\n      0x16\n        /* \"#utility.yul\":4028:4031   */\n      dup4\n        /* \"#utility.yul\":3969:4036   */\n      tag_110\n      jump\t// in\n    tag_168:\n        /* \"#utility.yul\":3962:4036   */\n      swap2\n      pop\n        /* \"#utility.yul\":4045:4138   */\n      tag_169\n        /* \"#utility.yul\":4134:4137   */\n      dup3\n        /* \"#utility.yul\":4045:4138   */\n      tag_111\n      jump\t// in\n    tag_169:\n        /* \"#utility.yul\":4163:4165   */\n      0x20\n        /* \"#utility.yul\":4158:4161   */\n      dup3\n        /* \"#utility.yul\":4154:4166   */\n      add\n        /* \"#utility.yul\":4147:4166   */\n      swap1\n      pop\n        /* \"#utility.yul\":3806:4172   */\n      swap2\n      swap1\n      pop\n      jump\t// out\n        /* \"#utility.yul\":4178:4597   */\n    tag_51:\n        /* \"#utility.yul\":4344:4348   */\n      0x00\n        /* \"#utility.yul\":4382:4384   */\n      0x20\n        /* \"#utility.yul\":4371:4380   */\n      dup3\n        /* \"#utility.yul\":4367:4385   */\n      add\n        /* \"#utility.yul\":4359:4385   */\n      swap1\n      pop\n        /* \"#utility.yul\":4431:4440   */\n      dup2\n        /* \"#utility.yul\":4425:4429   */\n      dup2\n        /* \"#utility.yul\":4421:4441   */\n      sub\n        /* \"#utility.yul\":4417:4418   */\n      0x00\n        /* \"#utility.yul\":4406:4415   */\n      dup4\n        /* \"#utility.yul\":4402:4419   */\n      add\n        /* \"#utility.yul\":4395:4442   */\n      mstore\n        /* \"#utility.yul\":4459:4590   */\n      tag_171\n        /* \"#utility.yul\":4585:4589   */\n      dup2\n        /* \"#utility.yul\":4459:4590   */\n      tag_112\n      jump\t// in\n    tag_171:\n        /* \"#utility.yul\":4451:4590   */\n      swap1\n      pop\n        /* \"#utility.yul\":4178:4597   */\n      swap2\n      swap1\n      pop\n      jump\t// out\n        /* \"#utility.yul\":4603:4783   */\n    tag_113:\n        /* \"#utility.yul\":4651:4728   */\n      0x4e487b7100000000000000000000000000000000000000000000000000000000\n        /* \"#utility.yul\":4648:4649   */\n      0x00\n        /* \"#utility.yul\":4641:4729   */\n      mstore\n        /* \"#utility.yul\":4748:4752   */\n      0x11\n        /* \"#utility.yul\":4745:4746   */\n      0x04\n        /* \"#utility.yul\":4738:4753   */\n      mstore\n        /* \"#utility.yul\":4772:4776   */\n      0x24\n        /* \"#utility.yul\":4769:4770   */\n      0x00\n        /* \"#utility.yul\":4762:4777   */\n      revert\n        /* \"#utility.yul\":4789:4980   */\n    tag_54:\n        /* \"#utility.yul\":4829:4832   */\n      0x00\n        /* \"#utility.yul\":4848:4868   */\n      tag_174\n        /* \"#utility.yul\":4866:4867   */\n      dup3\n        /* \"#utility.yul\":4848:4868   */\n      tag_103\n      jump\t// in\n    tag_174:\n        /* \"#utility.yul\":4843:4868   */\n      swap2\n      pop\n        /* \"#utility.yul\":4882:4902   */\n      tag_175\n        /* \"#utility.yul\":4900:4901   */\n      dup4\n        /* \"#utility.yul\":4882:4902   */\n      tag_103\n      jump\t// in\n    tag_175:\n        /* \"#utility.yul\":4877:4902   */\n      swap3\n      pop\n        /* \"#utility.yul\":4925:4926   */\n      dup3\n        /* \"#utility.yul\":4922:4923   */\n      dup3\n        /* \"#utility.yul\":4918:4927   */\n      add\n        /* \"#utility.yul\":4911:4927   */\n      swap1\n      pop\n        /* \"#utility.yul\":4946:4949   */\n      dup1\n        /* \"#utility.yul\":4943:4944   */\n      dup3\n        /* \"#utility.yul\":4940:4950   */\n      gt\n        /* \"#utility.yul\":4937:4973   */\n      iszero\n      tag_176\n      jumpi\n        /* \"#utility.yul\":4953:4971   */\n      tag_177\n      tag_113\n      jump\t// in\n    tag_177:\n        /* \"#utility.yul\":4937:4973   */\n    tag_176:\n        /* \"#utility.yul\":4789:4980   */\n      swap3\n      swap2\n      pop\n      pop\n      jump\t// out\n        /* \"#utility.yul\":4986:5166   */\n    tag_63:\n        /* \"#utility.yul\":5034:5111   */\n      0x4e487b7100000000000000000000000000000000000000000000000000000000\n        /* \"#utility.yul\":5031:5032   */\n      0x00\n        /* \"#utility.yul\":5024:5112   */\n      mstore\n        /* \"#utility.yul\":5131:5135   */\n      0x32\n        /* \"#utility.yul\":5128:5129   */\n      0x04\n        /* \"#utility.yul\":5121:5136   */\n      mstore\n        /* \"#utility.yul\":5155:5159   */\n      0x24\n        /* \"#utility.yul\":5152:5153   */\n      0x00\n        /* \"#utility.yul\":5145:5160   */\n      revert\n        /* \"#utility.yul\":5172:5405   */\n    tag_66:\n        /* \"#utility.yul\":5211:5214   */\n      0x00\n        /* \"#utility.yul\":5234:5258   */\n      tag_180\n        /* \"#utility.yul\":5252:5257   */\n      dup3\n        /* \"#utility.yul\":5234:5258   */\n      tag_103\n      jump\t// in\n    tag_180:\n        /* \"#utility.yul\":5225:5258   */\n      swap2\n      pop\n        /* \"#utility.yul\":5280:5346   */\n      0xffffffffffffffffffffffffffffffffffffffffffffffffffffffffffffffff\n        /* \"#utility.yul\":5273:5278   */\n      dup3\n        /* \"#utility.yul\":5270:5347   */\n      sub\n        /* \"#utility.yul\":5267:5370   */\n      tag_181\n      jumpi\n        /* \"#utility.yul\":5350:5368   */\n      tag_182\n      tag_113\n      jump\t// in\n    tag_182:\n        /* \"#utility.yul\":5267:5370   */\n    tag_181:\n        /* \"#utility.yul\":5397:5398   */\n      0x01\n        /* \"#utility.yul\":5390:5395   */\n      dup3\n        /* \"#utility.yul\":5386:5399   */\n      add\n        /* \"#utility.yul\":5379:5399   */\n      swap1\n      pop\n        /* \"#utility.yul\":5172:5405   */\n      swap2\n      swap1\n      pop\n      jump\t// out\n        /* \"#utility.yul\":5411:5591   */\n    tag_69:\n        /* \"#utility.yul\":5459:5536   */\n      0x4e487b7100000000000000000000000000000000000000000000000000000000\n        /* \"#utility.yul\":5456:5457   */\n      0x00\n        /* \"#utility.yul\":5449:5537   */\n      mstore\n        /* \"#utility.yul\":5556:5560   */\n      0x41\n        /* \"#utility.yul\":5553:5554   */\n      0x04\n        /* \"#utility.yul\":5546:5561   */\n      mstore\n        /* \"#utility.yul\":5580:5584   */\n      0x24\n        /* \"#utility.yul\":5577:5578   */\n      0x00\n        /* \"#utility.yul\":5570:5585   */\n      revert\n        /* \"#utility.yul\":5597:5758   */\n    tag_114:\n        /* \"#utility.yul\":5737:5750   */\n      0x73656e64206661696c6564000000000000000000000000000000000000000000\n        /* \"#utility.yul\":5733:5734   */\n      0x00\n        /* \"#utility.yul\":5725:5731   */\n      dup3\n        /* \"#utility.yul\":5721:5735   */\n      add\n        /* \"#utility.yul\":5714:5751   */\n      mstore\n        /* \"#utility.yul\":5597:5758   */\n      pop\n      jump\t// out\n        /* \"#utility.yul\":5764:6130   */\n    tag_115:\n        /* \"#utility.yul\":5906:5909   */\n      0x00\n        /* \"#utility.yul\":5927:5994   */\n      tag_186\n        /* \"#utility.yul\":5991:5993   */\n      0x0b\n        /* \"#utility.yul\":5986:5989   */\n      dup4\n        /* \"#utility.yul\":5927:5994   */\n      tag_110\n      jump\t// in\n    tag_186:\n        /* \"#utility.yul\":5920:5994   */\n      swap2\n      pop\n        /* \"#utility.yul\":6003:6096   */\n      tag_187\n        /* \"#utility.yul\":6092:6095   */\n      dup3\n        /* \"#utility.yul\":6003:6096   */\n      tag_114\n      jump\t// in\n    tag_187:\n        /* \"#utility.yul\":6121:6123   */\n      0x20\n        /* \"#utility.yul\":6116:6119   */\n      dup3\n        /* \"#utility.yul\":6112:6124   */\n      add\n        /* \"#utility.yul\":6105:6124   */\n      swap1\n      pop\n        /* \"#utility.yul\":5764:6130   */\n      swap2\n      swap1\n      pop\n      jump\t// out\n        /* \"#utility.yul\":6136:6555   */\n    tag_78:\n        /* \"#utility.yul\":6302:6306   */\n      0x00\n        /* \"#utility.yul\":6340:6342   */\n      0x20\n        /* \"#utility.yul\":6329:6338   */\n      dup3\n        /* \"#utility.yul\":6325:6343   */\n      add\n        /* \"#utility.yul\":6317:6343   */\n      swap1\n      pop\n        /* \"#utility.yul\":6389:6398   */\n      dup2\n        /* \"#utility.yul\":6383:6387   */\n      dup2\n        /* \"#utility.yul\":6379:6399   */\n      sub\n        /* \"#utility.yul\":6375:6376   */\n      0x00\n        /* \"#utility.yul\":6364:6373   */\n      dup4\n        /* \"#utility.yul\":6360:6377   */\n      add\n        /* \"#utility.yul\":6353:6400   */\n      mstore\n        /* \"#utility.yul\":6417:6548   */\n      tag_189\n        /* \"#utility.yul\":6543:6547   */\n      dup2\n        /* \"#utility.yul\":6417:6548   */\n      tag_115\n      jump\t// in\n    tag_189:\n        /* \"#utility.yul\":6409:6548   */\n      swap1\n      pop\n        /* \"#utility.yul\":6136:6555   */\n      swap2\n      swap1\n      pop\n      jump\t// out\n        /* \"#utility.yul\":6561:6708   */\n    tag_116:\n        /* \"#utility.yul\":6662:6673   */\n      0x00\n        /* \"#utility.yul\":6699:6702   */\n      dup2\n        /* \"#utility.yul\":6684:6702   */\n      swap1\n      pop\n        /* \"#utility.yul\":6561:6708   */\n      swap3\n      swap2\n      pop\n      pop\n      jump\t// out\n        /* \"#utility.yul\":6714:6828   */\n    tag_117:\n      pop\n      jump\t// out\n        /* \"#utility.yul\":6834:7232   */\n    tag_118:\n        /* \"#utility.yul\":6993:6996   */\n      0x00\n        /* \"#utility.yul\":7014:7097   */\n      tag_193\n        /* \"#utility.yul\":7095:7096   */\n      0x00\n        /* \"#utility.yul\":7090:7093   */\n      dup4\n        /* \"#utility.yul\":7014:7097   */\n      tag_116\n      jump\t// in\n    tag_193:\n        /* \"#utility.yul\":7007:7097   */\n      swap2\n      pop\n        /* \"#utility.yul\":7106:7199   */\n      tag_194\n        /* \"#utility.yul\":7195:7198   */\n      dup3\n        /* \"#utility.yul\":7106:7199   */\n      tag_117\n      jump\t// in\n    tag_194:\n        /* \"#utility.yul\":7224:7225   */\n      0x00\n        /* \"#utility.yul\":7219:7222   */\n      dup3\n        /* \"#utility.yul\":7215:7226   */\n      add\n        /* \"#utility.yul\":7208:7226   */\n      swap1\n      pop\n        /* \"#utility.yul\":6834:7232   */\n      swap2\n      swap1\n      pop\n      jump\t// out\n        /* \"#utility.yul\":7238:7617   */\n    tag_80:\n        /* \"#utility.yul\":7422:7425   */\n      0x00\n        /* \"#utility.yul\":7444:7591   */\n      tag_196\n        /* \"#utility.yul\":7587:7590   */\n      dup3\n        /* \"#utility.yul\":7444:7591   */\n      tag_118\n      jump\t// in\n    tag_196:\n        /* \"#utility.yul\":7437:7591   */\n      swap2\n      pop\n        /* \"#utility.yul\":7608:7611   */\n      dup2\n        /* \"#utility.yul\":7601:7611   */\n      swap1\n      pop\n        /* \"#utility.yul\":7238:7617   */\n      swap2\n      swap1\n      pop\n      jump\t// out\n        /* \"#utility.yul\":7623:7784   */\n    tag_119:\n        /* \"#utility.yul\":7763:7776   */\n      0x43616c6c206661696c6564000000000000000000000000000000000000000000\n        /* \"#utility.yul\":7759:7760   */\n      0x00\n        /* \"#utility.yul\":7751:7757   */\n      dup3\n        /* \"#utility.yul\":7747:7761   */\n      add\n        /* \"#utility.yul\":7740:7777   */\n      mstore\n        /* \"#utility.yul\":7623:7784   */\n      pop\n      jump\t// out\n        /* \"#utility.yul\":7790:8156   */\n    tag_120:\n        /* \"#utility.yul\":7932:7935   */\n      0x00\n        /* \"#utility.yul\":7953:8020   */\n      tag_199\n        /* \"#utility.yul\":8017:8019   */\n      0x0b\n        /* \"#utility.yul\":8012:8015   */\n      dup4\n        /* \"#utility.yul\":7953:8020   */\n      tag_110\n      jump\t// in\n    tag_199:\n        /* \"#utility.yul\":7946:8020   */\n      swap2\n      pop\n        /* \"#utility.yul\":8029:8122   */\n      tag_200\n        /* \"#utility.yul\":8118:8121   */\n      dup3\n        /* \"#utility.yul\":8029:8122   */\n      tag_119\n      jump\t// in\n    tag_200:\n        /* \"#utility.yul\":8147:8149   */\n      0x20\n        /* \"#utility.yul\":8142:8145   */\n      dup3\n        /* \"#utility.yul\":8138:8150   */\n      add\n        /* \"#utility.yul\":8131:8150   */\n      swap1\n      pop\n        /* \"#utility.yul\":7790:8156   */\n      swap2\n      swap1\n      pop\n      jump\t// out\n        /* \"#utility.yul\":8162:8581   */\n    tag_86:\n        /* \"#utility.yul\":8328:8332   */\n      0x00\n        /* \"#utility.yul\":8366:8368   */\n      0x20\n        /* \"#utility.yul\":8355:8364   */\n      dup3\n        /* \"#utility.yul\":8351:8369   */\n      add\n        /* \"#utility.yul\":8343:8369   */\n      swap1\n      pop\n        /* \"#utility.yul\":8415:8424   */\n      dup2\n        /* \"#utility.yul\":8409:8413   */\n      dup2\n        /* \"#utility.yul\":8405:8425   */\n      sub\n        /* \"#utility.yul\":8401:8402   */\n      0x00\n        /* \"#utility.yul\":8390:8399   */\n      dup4\n        /* \"#utility.yul\":8386:8403   */\n      add\n        /* \"#utility.yul\":8379:8426   */\n      mstore\n        /* \"#utility.yul\":8443:8574   */\n      tag_202\n        /* \"#utility.yul\":8569:8573   */\n      dup2\n        /* \"#utility.yul\":8443:8574   */\n      tag_120\n      jump\t// in\n    tag_202:\n        /* \"#utility.yul\":8435:8574   */\n      swap1\n      pop\n        /* \"#utility.yul\":8162:8581   */\n      swap2\n      swap1\n      pop\n      jump\t// out\n\n    auxdata: 0xa2646970667358221220a0a81fe0ca98064b83c2b53afd1b1201f0ff08c3a20a9d90d215e183cde8945264736f6c63430008130033\n}\n",
				"bytecode": {
					"linkReferences": {
						"chp_2/FundMe.sol": {
							"PriceConverter": [
								{
									"length": 20,
									"start": 471
								}
							]
						}
					},
					"object": "60a060405234801561001057600080fd5b503373ffffffffffffffffffffffffffffffffffffffff1660808173ffffffffffffffffffffffffffffffffffffffff1681525050608051610ba0610067600039600081816102e5015261060b0152610ba06000f3fe6080604052600436106100595760003560e01c80633ccfd60b146100725780633e47d6f3146100895780636b69a592146100c6578063b60d4288146100f1578063dba6335f146100fb578063dc0d3dff1461012657610068565b3661006857610066610163565b005b610070610163565b005b34801561007e57600080fd5b506100876102e3565b005b34801561009557600080fd5b506100b060048036038101906100ab9190610776565b6105e4565b6040516100bd91906107bc565b60405180910390f35b3480156100d257600080fd5b506100db6105fc565b6040516100e891906107bc565b60405180910390f35b6100f9610163565b005b34801561010757600080fd5b50610110610609565b60405161011d91906107e6565b60405180910390f35b34801561013257600080fd5b5061014d6004803603810190610148919061082d565b61062d565b60405161015a91906107e6565b60405180910390f35b6802b5e3af16b18800003473__$90c210becef823f7d6f774b0422d3b787c$__636e5b6b2890916040518263ffffffff1660e01b81526004016101a69190610869565b602060405180830381865af41580156101c3573d6000803e3d6000fd5b505050506040513d601f19601f820116820180604052508101906101e79190610899565b1015610228576040517f08c379a000000000000000000000000000000000000000000000000000000000815260040161021f90610923565b60405180910390fd5b6000339080600181540180825580915050600190039060005260206000200160009091909190916101000a81548173ffffffffffffffffffffffffffffffffffffffff021916908373ffffffffffffffffffffffffffffffffffffffff16021790555034600160003373ffffffffffffffffffffffffffffffffffffffff1673ffffffffffffffffffffffffffffffffffffffff16815260200190815260200160002060008282546102da9190610972565b92505081905550565b7f000000000000000000000000000000000000000000000000000000000000000073ffffffffffffffffffffffffffffffffffffffff163373ffffffffffffffffffffffffffffffffffffffff1614610368576040517f30cd747100000000000000000000000000000000000000000000000000000000815260040160405180910390fd5b60005b60008054905081101561041357600080828154811061038d5761038c6109a6565b5b9060005260206000200160009054906101000a900473ffffffffffffffffffffffffffffffffffffffff1690506000600160008373ffffffffffffffffffffffffffffffffffffffff1673ffffffffffffffffffffffffffffffffffffffff1681526020019081526020016000208190555050808061040b906109d5565b91505061036b565b50600067ffffffffffffffff81111561042f5761042e610a1d565b5b60405190808252806020026020018201604052801561045d5781602001602082028036833780820191505090505b506000908051906020019061047392919061066c565b503373ffffffffffffffffffffffffffffffffffffffff166108fc479081150290604051600060405180830381858888f193505050501580156104ba573d6000803e3d6000fd5b5060003373ffffffffffffffffffffffffffffffffffffffff166108fc479081150290604051600060405180830381858888f19350505050905080610534576040517f08c379a000000000000000000000000000000000000000000000000000000000815260040161052b90610a98565b60405180910390fd5b60003373ffffffffffffffffffffffffffffffffffffffff164760405161055a90610ae9565b60006040518083038185875af1925050503d8060008114610597576040519150601f19603f3d011682016040523d82523d6000602084013e61059c565b606091505b50509050806105e0576040517f08c379a00000000000000000000000000000000000000000000000000000000081526004016105d790610b4a565b60405180910390fd5b5050565b60016020528060005260406000206000915090505481565b6802b5e3af16b188000081565b7f000000000000000000000000000000000000000000000000000000000000000081565b6000818154811061063d57600080fd5b906000526020600020016000915054906101000a900473ffffffffffffffffffffffffffffffffffffffff1681565b8280548282559060005260206000209081019282156106e5579160200282015b828111156106e45782518260006101000a81548173ffffffffffffffffffffffffffffffffffffffff021916908373ffffffffffffffffffffffffffffffffffffffff1602179055509160200191906001019061068c565b5b5090506106f291906106f6565b5090565b5b8082111561070f5760008160009055506001016106f7565b5090565b600080fd5b600073ffffffffffffffffffffffffffffffffffffffff82169050919050565b600061074382610718565b9050919050565b61075381610738565b811461075e57600080fd5b50565b6000813590506107708161074a565b92915050565b60006020828403121561078c5761078b610713565b5b600061079a84828501610761565b91505092915050565b6000819050919050565b6107b6816107a3565b82525050565b60006020820190506107d160008301846107ad565b92915050565b6107e081610738565b82525050565b60006020820190506107fb60008301846107d7565b92915050565b61080a816107a3565b811461081557600080fd5b50565b60008135905061082781610801565b92915050565b60006020828403121561084357610842610713565b5b600061085184828501610818565b91505092915050565b610863816107a3565b82525050565b600060208201905061087e600083018461085a565b92915050565b60008151905061089381610801565b92915050565b6000602082840312156108af576108ae610713565b5b60006108bd84828501610884565b91505092915050565b600082825260208201905092915050565b7f6469646e27742073656e6420656e6f7567682045544800000000000000000000600082015250565b600061090d6016836108c6565b9150610918826108d7565b602082019050919050565b6000602082019050818103600083015261093c81610900565b9050919050565b7f4e487b7100000000000000000000000000000000000000000000000000000000600052601160045260246000fd5b600061097d826107a3565b9150610988836107a3565b92508282019050808211156109a05761099f610943565b5b92915050565b7f4e487b7100000000000000000000000000000000000000000000000000000000600052603260045260246000fd5b60006109e0826107a3565b91507fffffffffffffffffffffffffffffffffffffffffffffffffffffffffffffffff8203610a1257610a11610943565b5b600182019050919050565b7f4e487b7100000000000000000000000000000000000000000000000000000000600052604160045260246000fd5b7f73656e64206661696c6564000000000000000000000000000000000000000000600082015250565b6000610a82600b836108c6565b9150610a8d82610a4c565b602082019050919050565b60006020820190508181036000830152610ab181610a75565b9050919050565b600081905092915050565b50565b6000610ad3600083610ab8565b9150610ade82610ac3565b600082019050919050565b6000610af482610ac6565b9150819050919050565b7f43616c6c206661696c6564000000000000000000000000000000000000000000600082015250565b6000610b34600b836108c6565b9150610b3f82610afe565b602082019050919050565b60006020820190508181036000830152610b6381610b27565b905091905056fea2646970667358221220a0a81fe0ca98064b83c2b53afd1b1201f0ff08c3a20a9d90d215e183cde8945264736f6c63430008130033",
					"opcodes": "PUSH1 0xA0 PUSH1 0x40 MSTORE CALLVALUE DUP1 ISZERO PUSH2 0x10 JUMPI PUSH1 0x0 DUP1 REVERT JUMPDEST POP CALLER PUSH20 0xFFFFFFFFFFFFFFFFFFFFFFFFFFFFFFFFFFFFFFFF AND PUSH1 0x80 DUP2 PUSH20 0xFFFFFFFFFFFFFFFFFFFFFFFFFFFFFFFFFFFFFFFF AND DUP2 MSTORE POP POP PUSH1 0x80 MLOAD PUSH2 0xBA0 PUSH2 0x67 PUSH1 0x0 CODECOPY PUSH1 0x0 DUP2 DUP2 PUSH2 0x2E5 ADD MSTORE PUSH2 0x60B ADD MSTORE PUSH2 0xBA0 PUSH1 0x0 RETURN INVALID PUSH1 0x80 PUSH1 0x40 MSTORE PUSH1 0x4 CALLDATASIZE LT PUSH2 0x59 JUMPI PUSH1 0x0 CALLDATALOAD PUSH1 0xE0 SHR DUP1 PUSH4 0x3CCFD60B EQ PUSH2 0x72 JUMPI DUP1 PUSH4 0x3E47D6F3 EQ PUSH2 0x89 JUMPI DUP1 PUSH4 0x6B69A592 EQ PUSH2 0xC6 JUMPI DUP1 PUSH4 0xB60D4288 EQ PUSH2 0xF1 JUMPI DUP1 PUSH4 0xDBA6335F EQ PUSH2 0xFB JUMPI DUP1 PUSH4 0xDC0D3DFF EQ PUSH2 0x126 JUMPI PUSH2 0x68 JUMP JUMPDEST CALLDATASIZE PUSH2 0x68 JUMPI PUSH2 0x66 PUSH2 0x163 JUMP JUMPDEST STOP JUMPDEST PUSH2 0x70 PUSH2 0x163 JUMP JUMPDEST STOP JUMPDEST CALLVALUE DUP1 ISZERO PUSH2 0x7E JUMPI PUSH1 0x0 DUP1 REVERT JUMPDEST POP PUSH2 0x87 PUSH2 0x2E3 JUMP JUMPDEST STOP JUMPDEST CALLVALUE DUP1 ISZERO PUSH2 0x95 JUMPI PUSH1 0x0 DUP1 REVERT JUMPDEST POP PUSH2 0xB0 PUSH1 0x4 DUP1 CALLDATASIZE SUB DUP2 ADD SWAP1 PUSH2 0xAB SWAP2 SWAP1 PUSH2 0x776 JUMP JUMPDEST PUSH2 0x5E4 JUMP JUMPDEST PUSH1 0x40 MLOAD PUSH2 0xBD SWAP2 SWAP1 PUSH2 0x7BC JUMP JUMPDEST PUSH1 0x40 MLOAD DUP1 SWAP2 SUB SWAP1 RETURN JUMPDEST CALLVALUE DUP1 ISZERO PUSH2 0xD2 JUMPI PUSH1 0x0 DUP1 REVERT JUMPDEST POP PUSH2 0xDB PUSH2 0x5FC JUMP JUMPDEST PUSH1 0x40 MLOAD PUSH2 0xE8 SWAP2 SWAP1 PUSH2 0x7BC JUMP JUMPDEST PUSH1 0x40 MLOAD DUP1 SWAP2 SUB SWAP1 RETURN JUMPDEST PUSH2 0xF9 PUSH2 0x163 JUMP JUMPDEST STOP JUMPDEST CALLVALUE DUP1 ISZERO PUSH2 0x107 JUMPI PUSH1 0x0 DUP1 REVERT JUMPDEST POP PUSH2 0x110 PUSH2 0x609 JUMP JUMPDEST PUSH1 0x40 MLOAD PUSH2 0x11D SWAP2 SWAP1 PUSH2 0x7E6 JUMP JUMPDEST PUSH1 0x40 MLOAD DUP1 SWAP2 SUB SWAP1 RETURN JUMPDEST CALLVALUE DUP1 ISZERO PUSH2 0x132 JUMPI PUSH1 0x0 DUP1 REVERT JUMPDEST POP PUSH2 0x14D PUSH1 0x4 DUP1 CALLDATASIZE SUB DUP2 ADD SWAP1 PUSH2 0x148 SWAP2 SWAP1 PUSH2 0x82D JUMP JUMPDEST PUSH2 0x62D JUMP JUMPDEST PUSH1 0x40 MLOAD PUSH2 0x15A SWAP2 SWAP1 PUSH2 0x7E6 JUMP JUMPDEST PUSH1 0x40 MLOAD DUP1 SWAP2 SUB SWAP1 RETURN JUMPDEST PUSH9 0x2B5E3AF16B1880000 CALLVALUE PUSH20 0x0 PUSH4 0x6E5B6B28 SWAP1 SWAP2 PUSH1 0x40 MLOAD DUP3 PUSH4 0xFFFFFFFF AND PUSH1 0xE0 SHL DUP2 MSTORE PUSH1 0x4 ADD PUSH2 0x1A6 SWAP2 SWAP1 PUSH2 0x869 JUMP JUMPDEST PUSH1 0x20 PUSH1 0x40 MLOAD DUP1 DUP4 SUB DUP2 DUP7 GAS DELEGATECALL ISZERO DUP1 ISZERO PUSH2 0x1C3 JUMPI RETURNDATASIZE PUSH1 0x0 DUP1 RETURNDATACOPY RETURNDATASIZE PUSH1 0x0 REVERT JUMPDEST POP POP POP POP PUSH1 0x40 MLOAD RETURNDATASIZE PUSH1 0x1F NOT PUSH1 0x1F DUP3 ADD AND DUP3 ADD DUP1 PUSH1 0x40 MSTORE POP DUP2 ADD SWAP1 PUSH2 0x1E7 SWAP2 SWAP1 PUSH2 0x899 JUMP JUMPDEST LT ISZERO PUSH2 0x228 JUMPI PUSH1 0x40 MLOAD PUSH32 0x8C379A000000000000000000000000000000000000000000000000000000000 DUP2 MSTORE PUSH1 0x4 ADD PUSH2 0x21F SWAP1 PUSH2 0x923 JUMP JUMPDEST PUSH1 0x40 MLOAD DUP1 SWAP2 SUB SWAP1 REVERT JUMPDEST PUSH1 0x0 CALLER SWAP1 DUP1 PUSH1 0x1 DUP2 SLOAD ADD DUP1 DUP3 SSTORE DUP1 SWAP2 POP POP PUSH1 0x1 SWAP1 SUB SWAP1 PUSH1 0x0 MSTORE PUSH1 0x20 PUSH1 0x0 KECCAK256 ADD PUSH1 0x0 SWAP1 SWAP2 SWAP1 SWAP2 SWAP1 SWAP2 PUSH2 0x100 EXP DUP2 SLOAD DUP2 PUSH20 0xFFFFFFFFFFFFFFFFFFFFFFFFFFFFFFFFFFFFFFFF MUL NOT AND SWAP1 DUP4 PUSH20 0xFFFFFFFFFFFFFFFFFFFFFFFFFFFFFFFFFFFFFFFF AND MUL OR SWAP1 SSTORE POP CALLVALUE PUSH1 0x1 PUSH1 0x0 CALLER PUSH20 0xFFFFFFFFFFFFFFFFFFFFFFFFFFFFFFFFFFFFFFFF AND PUSH20 0xFFFFFFFFFFFFFFFFFFFFFFFFFFFFFFFFFFFFFFFF AND DUP2 MSTORE PUSH1 0x20 ADD SWAP1 DUP2 MSTORE PUSH1 0x20 ADD PUSH1 0x0 KECCAK256 PUSH1 0x0 DUP3 DUP3 SLOAD PUSH2 0x2DA SWAP2 SWAP1 PUSH2 0x972 JUMP JUMPDEST SWAP3 POP POP DUP2 SWAP1 SSTORE POP JUMP JUMPDEST PUSH32 0x0 PUSH20 0xFFFFFFFFFFFFFFFFFFFFFFFFFFFFFFFFFFFFFFFF AND CALLER PUSH20 0xFFFFFFFFFFFFFFFFFFFFFFFFFFFFFFFFFFFFFFFF AND EQ PUSH2 0x368 JUMPI PUSH1 0x40 MLOAD PUSH32 0x30CD747100000000000000000000000000000000000000000000000000000000 DUP2 MSTORE PUSH1 0x4 ADD PUSH1 0x40 MLOAD DUP1 SWAP2 SUB SWAP1 REVERT JUMPDEST PUSH1 0x0 JUMPDEST PUSH1 0x0 DUP1 SLOAD SWAP1 POP DUP2 LT ISZERO PUSH2 0x413 JUMPI PUSH1 0x0 DUP1 DUP3 DUP2 SLOAD DUP2 LT PUSH2 0x38D JUMPI PUSH2 0x38C PUSH2 0x9A6 JUMP JUMPDEST JUMPDEST SWAP1 PUSH1 0x0 MSTORE PUSH1 0x20 PUSH1 0x0 KECCAK256 ADD PUSH1 0x0 SWAP1 SLOAD SWAP1 PUSH2 0x100 EXP SWAP1 DIV PUSH20 0xFFFFFFFFFFFFFFFFFFFFFFFFFFFFFFFFFFFFFFFF AND SWAP1 POP PUSH1 0x0 PUSH1 0x1 PUSH1 0x0 DUP4 PUSH20 0xFFFFFFFFFFFFFFFFFFFFFFFFFFFFFFFFFFFFFFFF AND PUSH20 0xFFFFFFFFFFFFFFFFFFFFFFFFFFFFFFFFFFFFFFFF AND DUP2 MSTORE PUSH1 0x20 ADD SWAP1 DUP2 MSTORE PUSH1 0x20 ADD PUSH1 0x0 KECCAK256 DUP2 SWAP1 SSTORE POP POP DUP1 DUP1 PUSH2 0x40B SWAP1 PUSH2 0x9D5 JUMP JUMPDEST SWAP2 POP POP PUSH2 0x36B JUMP JUMPDEST POP PUSH1 0x0 PUSH8 0xFFFFFFFFFFFFFFFF DUP2 GT ISZERO PUSH2 0x42F JUMPI PUSH2 0x42E PUSH2 0xA1D JUMP JUMPDEST JUMPDEST PUSH1 0x40 MLOAD SWAP1 DUP1 DUP3 MSTORE DUP1 PUSH1 0x20 MUL PUSH1 0x20 ADD DUP3 ADD PUSH1 0x40 MSTORE DUP1 ISZERO PUSH2 0x45D JUMPI DUP2 PUSH1 0x20 ADD PUSH1 0x20 DUP3 MUL DUP1 CALLDATASIZE DUP4 CALLDATACOPY DUP1 DUP3 ADD SWAP2 POP POP SWAP1 POP JUMPDEST POP PUSH1 0x0 SWAP1 DUP1 MLOAD SWAP1 PUSH1 0x20 ADD SWAP1 PUSH2 0x473 SWAP3 SWAP2 SWAP1 PUSH2 0x66C JUMP JUMPDEST POP CALLER PUSH20 0xFFFFFFFFFFFFFFFFFFFFFFFFFFFFFFFFFFFFFFFF AND PUSH2 0x8FC SELFBALANCE SWAP1 DUP2 ISZERO MUL SWAP1 PUSH1 0x40 MLOAD PUSH1 0x0 PUSH1 0x40 MLOAD DUP1 DUP4 SUB DUP2 DUP6 DUP9 DUP9 CALL SWAP4 POP POP POP POP ISZERO DUP1 ISZERO PUSH2 0x4BA JUMPI RETURNDATASIZE PUSH1 0x0 DUP1 RETURNDATACOPY RETURNDATASIZE PUSH1 0x0 REVERT JUMPDEST POP PUSH1 0x0 CALLER PUSH20 0xFFFFFFFFFFFFFFFFFFFFFFFFFFFFFFFFFFFFFFFF AND PUSH2 0x8FC SELFBALANCE SWAP1 DUP2 ISZERO MUL SWAP1 PUSH1 0x40 MLOAD PUSH1 0x0 PUSH1 0x40 MLOAD DUP1 DUP4 SUB DUP2 DUP6 DUP9 DUP9 CALL SWAP4 POP POP POP POP SWAP1 POP DUP1 PUSH2 0x534 JUMPI PUSH1 0x40 MLOAD PUSH32 0x8C379A000000000000000000000000000000000000000000000000000000000 DUP2 MSTORE PUSH1 0x4 ADD PUSH2 0x52B SWAP1 PUSH2 0xA98 JUMP JUMPDEST PUSH1 0x40 MLOAD DUP1 SWAP2 SUB SWAP1 REVERT JUMPDEST PUSH1 0x0 CALLER PUSH20 0xFFFFFFFFFFFFFFFFFFFFFFFFFFFFFFFFFFFFFFFF AND SELFBALANCE PUSH1 0x40 MLOAD PUSH2 0x55A SWAP1 PUSH2 0xAE9 JUMP JUMPDEST PUSH1 0x0 PUSH1 0x40 MLOAD DUP1 DUP4 SUB DUP2 DUP6 DUP8 GAS CALL SWAP3 POP POP POP RETURNDATASIZE DUP1 PUSH1 0x0 DUP2 EQ PUSH2 0x597 JUMPI PUSH1 0x40 MLOAD SWAP2 POP PUSH1 0x1F NOT PUSH1 0x3F RETURNDATASIZE ADD AND DUP3 ADD PUSH1 0x40 MSTORE RETURNDATASIZE DUP3 MSTORE RETURNDATASIZE PUSH1 0x0 PUSH1 0x20 DUP5 ADD RETURNDATACOPY PUSH2 0x59C JUMP JUMPDEST PUSH1 0x60 SWAP2 POP JUMPDEST POP POP SWAP1 POP DUP1 PUSH2 0x5E0 JUMPI PUSH1 0x40 MLOAD PUSH32 0x8C379A000000000000000000000000000000000000000000000000000000000 DUP2 MSTORE PUSH1 0x4 ADD PUSH2 0x5D7 SWAP1 PUSH2 0xB4A JUMP JUMPDEST PUSH1 0x40 MLOAD DUP1 SWAP2 SUB SWAP1 REVERT JUMPDEST POP POP JUMP JUMPDEST PUSH1 0x1 PUSH1 0x20 MSTORE DUP1 PUSH1 0x0 MSTORE PUSH1 0x40 PUSH1 0x0 KECCAK256 PUSH1 0x0 SWAP2 POP SWAP1 POP SLOAD DUP2 JUMP JUMPDEST PUSH9 0x2B5E3AF16B1880000 DUP2 JUMP JUMPDEST PUSH32 0x0 DUP2 JUMP JUMPDEST PUSH1 0x0 DUP2 DUP2 SLOAD DUP2 LT PUSH2 0x63D JUMPI PUSH1 0x0 DUP1 REVERT JUMPDEST SWAP1 PUSH1 0x0 MSTORE PUSH1 0x20 PUSH1 0x0 KECCAK256 ADD PUSH1 0x0 SWAP2 POP SLOAD SWAP1 PUSH2 0x100 EXP SWAP1 DIV PUSH20 0xFFFFFFFFFFFFFFFFFFFFFFFFFFFFFFFFFFFFFFFF AND DUP2 JUMP JUMPDEST DUP3 DUP1 SLOAD DUP3 DUP3 SSTORE SWAP1 PUSH1 0x0 MSTORE PUSH1 0x20 PUSH1 0x0 KECCAK256 SWAP1 DUP2 ADD SWAP3 DUP3 ISZERO PUSH2 0x6E5 JUMPI SWAP2 PUSH1 0x20 MUL DUP3 ADD JUMPDEST DUP3 DUP2 GT ISZERO PUSH2 0x6E4 JUMPI DUP3 MLOAD DUP3 PUSH1 0x0 PUSH2 0x100 EXP DUP2 SLOAD DUP2 PUSH20 0xFFFFFFFFFFFFFFFFFFFFFFFFFFFFFFFFFFFFFFFF MUL NOT AND SWAP1 DUP4 PUSH20 0xFFFFFFFFFFFFFFFFFFFFFFFFFFFFFFFFFFFFFFFF AND MUL OR SWAP1 SSTORE POP SWAP2 PUSH1 0x20 ADD SWAP2 SWAP1 PUSH1 0x1 ADD SWAP1 PUSH2 0x68C JUMP JUMPDEST JUMPDEST POP SWAP1 POP PUSH2 0x6F2 SWAP2 SWAP1 PUSH2 0x6F6 JUMP JUMPDEST POP SWAP1 JUMP JUMPDEST JUMPDEST DUP1 DUP3 GT ISZERO PUSH2 0x70F JUMPI PUSH1 0x0 DUP2 PUSH1 0x0 SWAP1 SSTORE POP PUSH1 0x1 ADD PUSH2 0x6F7 JUMP JUMPDEST POP SWAP1 JUMP JUMPDEST PUSH1 0x0 DUP1 REVERT JUMPDEST PUSH1 0x0 PUSH20 0xFFFFFFFFFFFFFFFFFFFFFFFFFFFFFFFFFFFFFFFF DUP3 AND SWAP1 POP SWAP2 SWAP1 POP JUMP JUMPDEST PUSH1 0x0 PUSH2 0x743 DUP3 PUSH2 0x718 JUMP JUMPDEST SWAP1 POP SWAP2 SWAP1 POP JUMP JUMPDEST PUSH2 0x753 DUP2 PUSH2 0x738 JUMP JUMPDEST DUP2 EQ PUSH2 0x75E JUMPI PUSH1 0x0 DUP1 REVERT JUMPDEST POP JUMP JUMPDEST PUSH1 0x0 DUP2 CALLDATALOAD SWAP1 POP PUSH2 0x770 DUP2 PUSH2 0x74A JUMP JUMPDEST SWAP3 SWAP2 POP POP JUMP JUMPDEST PUSH1 0x0 PUSH1 0x20 DUP3 DUP5 SUB SLT ISZERO PUSH2 0x78C JUMPI PUSH2 0x78B PUSH2 0x713 JUMP JUMPDEST JUMPDEST PUSH1 0x0 PUSH2 0x79A DUP5 DUP3 DUP6 ADD PUSH2 0x761 JUMP JUMPDEST SWAP2 POP POP SWAP3 SWAP2 POP POP JUMP JUMPDEST PUSH1 0x0 DUP2 SWAP1 POP SWAP2 SWAP1 POP JUMP JUMPDEST PUSH2 0x7B6 DUP2 PUSH2 0x7A3 JUMP JUMPDEST DUP3 MSTORE POP POP JUMP JUMPDEST PUSH1 0x0 PUSH1 0x20 DUP3 ADD SWAP1 POP PUSH2 0x7D1 PUSH1 0x0 DUP4 ADD DUP5 PUSH2 0x7AD JUMP JUMPDEST SWAP3 SWAP2 POP POP JUMP JUMPDEST PUSH2 0x7E0 DUP2 PUSH2 0x738 JUMP JUMPDEST DUP3 MSTORE POP POP JUMP JUMPDEST PUSH1 0x0 PUSH1 0x20 DUP3 ADD SWAP1 POP PUSH2 0x7FB PUSH1 0x0 DUP4 ADD DUP5 PUSH2 0x7D7 JUMP JUMPDEST SWAP3 SWAP2 POP POP JUMP JUMPDEST PUSH2 0x80A DUP2 PUSH2 0x7A3 JUMP JUMPDEST DUP2 EQ PUSH2 0x815 JUMPI PUSH1 0x0 DUP1 REVERT JUMPDEST POP JUMP JUMPDEST PUSH1 0x0 DUP2 CALLDATALOAD SWAP1 POP PUSH2 0x827 DUP2 PUSH2 0x801 JUMP JUMPDEST SWAP3 SWAP2 POP POP JUMP JUMPDEST PUSH1 0x0 PUSH1 0x20 DUP3 DUP5 SUB SLT ISZERO PUSH2 0x843 JUMPI PUSH2 0x842 PUSH2 0x713 JUMP JUMPDEST JUMPDEST PUSH1 0x0 PUSH2 0x851 DUP5 DUP3 DUP6 ADD PUSH2 0x818 JUMP JUMPDEST SWAP2 POP POP SWAP3 SWAP2 POP POP JUMP JUMPDEST PUSH2 0x863 DUP2 PUSH2 0x7A3 JUMP JUMPDEST DUP3 MSTORE POP POP JUMP JUMPDEST PUSH1 0x0 PUSH1 0x20 DUP3 ADD SWAP1 POP PUSH2 0x87E PUSH1 0x0 DUP4 ADD DUP5 PUSH2 0x85A JUMP JUMPDEST SWAP3 SWAP2 POP POP JUMP JUMPDEST PUSH1 0x0 DUP2 MLOAD SWAP1 POP PUSH2 0x893 DUP2 PUSH2 0x801 JUMP JUMPDEST SWAP3 SWAP2 POP POP JUMP JUMPDEST PUSH1 0x0 PUSH1 0x20 DUP3 DUP5 SUB SLT ISZERO PUSH2 0x8AF JUMPI PUSH2 0x8AE PUSH2 0x713 JUMP JUMPDEST JUMPDEST PUSH1 0x0 PUSH2 0x8BD DUP5 DUP3 DUP6 ADD PUSH2 0x884 JUMP JUMPDEST SWAP2 POP POP SWAP3 SWAP2 POP POP JUMP JUMPDEST PUSH1 0x0 DUP3 DUP3 MSTORE PUSH1 0x20 DUP3 ADD SWAP1 POP SWAP3 SWAP2 POP POP JUMP JUMPDEST PUSH32 0x6469646E27742073656E6420656E6F7567682045544800000000000000000000 PUSH1 0x0 DUP3 ADD MSTORE POP JUMP JUMPDEST PUSH1 0x0 PUSH2 0x90D PUSH1 0x16 DUP4 PUSH2 0x8C6 JUMP JUMPDEST SWAP2 POP PUSH2 0x918 DUP3 PUSH2 0x8D7 JUMP JUMPDEST PUSH1 0x20 DUP3 ADD SWAP1 POP SWAP2 SWAP1 POP JUMP JUMPDEST PUSH1 0x0 PUSH1 0x20 DUP3 ADD SWAP1 POP DUP2 DUP2 SUB PUSH1 0x0 DUP4 ADD MSTORE PUSH2 0x93C DUP2 PUSH2 0x900 JUMP JUMPDEST SWAP1 POP SWAP2 SWAP1 POP JUMP JUMPDEST PUSH32 0x4E487B7100000000000000000000000000000000000000000000000000000000 PUSH1 0x0 MSTORE PUSH1 0x11 PUSH1 0x4 MSTORE PUSH1 0x24 PUSH1 0x0 REVERT JUMPDEST PUSH1 0x0 PUSH2 0x97D DUP3 PUSH2 0x7A3 JUMP JUMPDEST SWAP2 POP PUSH2 0x988 DUP4 PUSH2 0x7A3 JUMP JUMPDEST SWAP3 POP DUP3 DUP3 ADD SWAP1 POP DUP1 DUP3 GT ISZERO PUSH2 0x9A0 JUMPI PUSH2 0x99F PUSH2 0x943 JUMP JUMPDEST JUMPDEST SWAP3 SWAP2 POP POP JUMP JUMPDEST PUSH32 0x4E487B7100000000000000000000000000000000000000000000000000000000 PUSH1 0x0 MSTORE PUSH1 0x32 PUSH1 0x4 MSTORE PUSH1 0x24 PUSH1 0x0 REVERT JUMPDEST PUSH1 0x0 PUSH2 0x9E0 DUP3 PUSH2 0x7A3 JUMP JUMPDEST SWAP2 POP PUSH32 0xFFFFFFFFFFFFFFFFFFFFFFFFFFFFFFFFFFFFFFFFFFFFFFFFFFFFFFFFFFFFFFFF DUP3 SUB PUSH2 0xA12 JUMPI PUSH2 0xA11 PUSH2 0x943 JUMP JUMPDEST JUMPDEST PUSH1 0x1 DUP3 ADD SWAP1 POP SWAP2 SWAP1 POP JUMP JUMPDEST PUSH32 0x4E487B7100000000000000000000000000000000000000000000000000000000 PUSH1 0x0 MSTORE PUSH1 0x41 PUSH1 0x4 MSTORE PUSH1 0x24 PUSH1 0x0 REVERT JUMPDEST PUSH32 0x73656E64206661696C6564000000000000000000000000000000000000000000 PUSH1 0x0 DUP3 ADD MSTORE POP JUMP JUMPDEST PUSH1 0x0 PUSH2 0xA82 PUSH1 0xB DUP4 PUSH2 0x8C6 JUMP JUMPDEST SWAP2 POP PUSH2 0xA8D DUP3 PUSH2 0xA4C JUMP JUMPDEST PUSH1 0x20 DUP3 ADD SWAP1 POP SWAP2 SWAP1 POP JUMP JUMPDEST PUSH1 0x0 PUSH1 0x20 DUP3 ADD SWAP1 POP DUP2 DUP2 SUB PUSH1 0x0 DUP4 ADD MSTORE PUSH2 0xAB1 DUP2 PUSH2 0xA75 JUMP JUMPDEST SWAP1 POP SWAP2 SWAP1 POP JUMP JUMPDEST PUSH1 0x0 DUP2 SWAP1 POP SWAP3 SWAP2 POP POP JUMP JUMPDEST POP JUMP JUMPDEST PUSH1 0x0 PUSH2 0xAD3 PUSH1 0x0 DUP4 PUSH2 0xAB8 JUMP JUMPDEST SWAP2 POP PUSH2 0xADE DUP3 PUSH2 0xAC3 JUMP JUMPDEST PUSH1 0x0 DUP3 ADD SWAP1 POP SWAP2 SWAP1 POP JUMP JUMPDEST PUSH1 0x0 PUSH2 0xAF4 DUP3 PUSH2 0xAC6 JUMP JUMPDEST SWAP2 POP DUP2 SWAP1 POP SWAP2 SWAP1 POP JUMP JUMPDEST PUSH32 0x43616C6C206661696C6564000000000000000000000000000000000000000000 PUSH1 0x0 DUP3 ADD MSTORE POP JUMP JUMPDEST PUSH1 0x0 PUSH2 0xB34 PUSH1 0xB DUP4 PUSH2 0x8C6 JUMP JUMPDEST SWAP2 POP PUSH2 0xB3F DUP3 PUSH2 0xAFE JUMP JUMPDEST PUSH1 0x20 DUP3 ADD SWAP1 POP SWAP2 SWAP1 POP JUMP JUMPDEST PUSH1 0x0 PUSH1 0x20 DUP3 ADD SWAP1 POP DUP2 DUP2 SUB PUSH1 0x0 DUP4 ADD MSTORE PUSH2 0xB63 DUP2 PUSH2 0xB27 JUMP JUMPDEST SWAP1 POP SWAP2 SWAP1 POP JUMP INVALID LOG2 PUSH5 0x6970667358 0x22 SLT KECCAK256 LOG0 0xA8 0x1F 0xE0 0xCA SWAP9 MOD 0x4B DUP4 0xC2 0xB5 GASPRICE REVERT SHL SLT ADD CREATE SELFDESTRUCT ADDMOD 0xC3 LOG2 EXP SWAP14 SWAP1 0xD2 ISZERO 0xE1 DUP4 0xCD 0xE8 SWAP5 MSTORE PUSH5 0x736F6C6343 STOP ADDMOD SGT STOP CALLER "
				},
				"gasEstimates": {
					"creation": {
						"codeDepositCost": "595200",
						"executionCost": "infinite",
						"totalCost": "infinite"
					},
					"external": {
						"": "infinite",
						"MINIMUM_USD()": "351",
						"addressToAmountFunded(address)": "2814",
						"fund()": "infinite",
						"funders(uint256)": "5044",
						"i_owner()": "infinite",
						"withdraw()": "infinite"
					}
				},
				"methodIdentifiers": {
					"MINIMUM_USD()": "6b69a592",
					"addressToAmountFunded(address)": "3e47d6f3",
					"fund()": "b60d4288",
					"funders(uint256)": "dc0d3dff",
					"i_owner()": "dba6335f",
					"withdraw()": "3ccfd60b"
				}
			},
			"storageLayout": {
				"storage": [
					{
						"astId": 125,
						"contract": "chp_2/FundMe.sol:FundMe",
						"label": "funders",
						"offset": 0,
						"slot": "0",
						"type": "t_array(t_address)dyn_storage"
					},
					{
						"astId": 129,
						"contract": "chp_2/FundMe.sol:FundMe",
						"label": "addressToAmountFunded",
						"offset": 0,
						"slot": "1",
						"type": "t_mapping(t_address,t_uint256)"
					}
				],
				"types": {
					"t_address": {
						"encoding": "inplace",
						"label": "address",
						"numberOfBytes": "20"
					},
					"t_array(t_address)dyn_storage": {
						"base": "t_address",
						"encoding": "dynamic_array",
						"label": "address[]",
						"numberOfBytes": "32"
					},
					"t_mapping(t_address,t_uint256)": {
						"encoding": "mapping",
						"key": "t_address",
						"label": "mapping(address => uint256)",
						"numberOfBytes": "32",
						"value": "t_uint256"
					},
					"t_uint256": {
						"encoding": "inplace",
						"label": "uint256",
						"numberOfBytes": "32"
					}
				}
			},
			"userdoc": {
				"kind": "user",
				"methods": {},
				"version": 1
			}
		}
	}
}